{
    "contractName": "Property",
    "abi": [
        {
            "inputs": [
                {
                    "internalType": "string",
                    "name": "_streetAddress",
                    "type": "string"
                },
                {
                    "internalType": "uint256",
                    "name": "_rentPerMonth",
                    "type": "uint256"
                }
            ],
            "stateMutability": "nonpayable",
            "type": "constructor"
        },
        {
            "anonymous": false,
            "inputs": [
                {
                    "indexed": true,
                    "internalType": "address",
                    "name": "owner",
                    "type": "address"
                },
                {
                    "indexed": true,
                    "internalType": "address",
                    "name": "approved",
                    "type": "address"
                },
                {
                    "indexed": true,
                    "internalType": "uint256",
                    "name": "tokenId",
                    "type": "uint256"
                }
            ],
            "name": "Approval",
            "type": "event"
        },
        {
            "anonymous": false,
            "inputs": [
                {
                    "indexed": true,
                    "internalType": "address",
                    "name": "owner",
                    "type": "address"
                },
                {
                    "indexed": true,
                    "internalType": "address",
                    "name": "operator",
                    "type": "address"
                },
                {
                    "indexed": false,
                    "internalType": "bool",
                    "name": "approved",
                    "type": "bool"
                }
            ],
            "name": "ApprovalForAll",
            "type": "event"
        },
        {
            "anonymous": false,
            "inputs": [
                {
                    "indexed": false,
                    "internalType": "uint8",
                    "name": "NewFee",
                    "type": "uint8"
                }
            ],
            "name": "ChangedFee",
            "type": "event"
        },
        {
            "anonymous": false,
            "inputs": [
                {
                    "indexed": true,
                    "internalType": "uint256",
                    "name": "id",
                    "type": "uint256"
                },
                {
                    "indexed": false,
                    "internalType": "uint256",
                    "name": "rent",
                    "type": "uint256"
                },
                {
                    "indexed": true,
                    "internalType": "address",
                    "name": "tenant",
                    "type": "address"
                }
            ],
            "name": "Leased",
            "type": "event"
        },
        {
            "anonymous": false,
            "inputs": [
                {
                    "indexed": true,
                    "internalType": "uint256",
                    "name": "id",
                    "type": "uint256"
                },
                {
                    "indexed": true,
                    "internalType": "address",
                    "name": "bidder",
                    "type": "address"
                },
                {
                    "indexed": true,
                    "internalType": "uint256",
                    "name": "amount",
                    "type": "uint256"
                }
            ],
            "name": "NewBidder",
            "type": "event"
        },
        {
            "anonymous": false,
            "inputs": [
                {
                    "indexed": true,
                    "internalType": "uint256",
                    "name": "id",
                    "type": "uint256"
                },
                {
                    "indexed": false,
                    "internalType": "uint256",
                    "name": "WEIs",
                    "type": "uint256"
                }
            ],
            "name": "RentPerMonthSetTo",
            "type": "event"
        },
        {
            "anonymous": false,
            "inputs": [
                {
                    "indexed": true,
                    "internalType": "address",
                    "name": "from",
                    "type": "address"
                },
                {
                    "indexed": true,
                    "internalType": "address",
                    "name": "to",
                    "type": "address"
                },
                {
                    "indexed": true,
                    "internalType": "uint256",
                    "name": "tokenId",
                    "type": "uint256"
                }
            ],
            "name": "Transfer",
            "type": "event"
        },
        {
            "inputs": [
                {
                    "internalType": "address",
                    "name": "to",
                    "type": "address"
                },
                {
                    "internalType": "uint256",
                    "name": "tokenId",
                    "type": "uint256"
                }
            ],
            "name": "approve",
            "outputs": [],
            "stateMutability": "nonpayable",
            "type": "function"
        },
        {
            "inputs": [
                {
                    "internalType": "address",
                    "name": "owner",
                    "type": "address"
                }
            ],
            "name": "balanceOf",
            "outputs": [
                {
                    "internalType": "uint256",
                    "name": "",
                    "type": "uint256"
                }
            ],
            "stateMutability": "view",
            "type": "function"
        },
        {
            "inputs": [],
            "name": "bid",
            "outputs": [],
            "stateMutability": "payable",
            "type": "function"
        },
        {
            "inputs": [
                {
                    "internalType": "address",
                    "name": "",
                    "type": "address"
                }
            ],
            "name": "bidders",
            "outputs": [
                {
                    "internalType": "uint256",
                    "name": "",
                    "type": "uint256"
                }
            ],
            "stateMutability": "view",
            "type": "function"
        },
        {
            "inputs": [
                {
                    "internalType": "uint256",
                    "name": "tokenId",
                    "type": "uint256"
                }
            ],
            "name": "getApproved",
            "outputs": [
                {
                    "internalType": "address",
                    "name": "",
                    "type": "address"
                }
            ],
            "stateMutability": "view",
            "type": "function"
        },
        {
            "inputs": [
                {
                    "internalType": "address",
                    "name": "owner",
                    "type": "address"
                },
                {
                    "internalType": "address",
                    "name": "operator",
                    "type": "address"
                }
            ],
            "name": "isApprovedForAll",
            "outputs": [
                {
                    "internalType": "bool",
                    "name": "",
                    "type": "bool"
                }
            ],
            "stateMutability": "view",
            "type": "function"
        },
        {
            "inputs": [
                {
                    "internalType": "address",
                    "name": "_address",
                    "type": "address"
                }
            ],
            "name": "isBidder",
            "outputs": [
                {
                    "internalType": "bool",
                    "name": "",
                    "type": "bool"
                }
            ],
            "stateMutability": "view",
            "type": "function"
        },
        {
            "inputs": [
                {
                    "internalType": "address",
                    "name": "_tenant",
                    "type": "address"
                }
            ],
            "name": "lease",
            "outputs": [],
            "stateMutability": "nonpayable",
            "type": "function"
        },
        {
            "inputs": [],
            "name": "name",
            "outputs": [
                {
                    "internalType": "string",
                    "name": "",
                    "type": "string"
                }
            ],
            "stateMutability": "view",
            "type": "function"
        },
        {
            "inputs": [],
            "name": "nftAddress",
            "outputs": [
                {
                    "internalType": "address",
                    "name": "",
                    "type": "address"
                }
            ],
            "stateMutability": "view",
            "type": "function"
        },
        {
            "inputs": [],
            "name": "owner",
            "outputs": [
                {
                    "internalType": "address",
                    "name": "",
                    "type": "address"
                }
            ],
            "stateMutability": "view",
            "type": "function"
        },
        {
            "inputs": [
                {
                    "internalType": "uint256",
                    "name": "tokenId",
                    "type": "uint256"
                }
            ],
            "name": "ownerOf",
            "outputs": [
                {
                    "internalType": "address",
                    "name": "",
                    "type": "address"
                }
            ],
            "stateMutability": "view",
            "type": "function"
        },
        {
            "inputs": [
                {
                    "internalType": "address",
                    "name": "from",
                    "type": "address"
                },
                {
                    "internalType": "address",
                    "name": "to",
                    "type": "address"
                },
                {
                    "internalType": "uint256",
                    "name": "tokenId",
                    "type": "uint256"
                }
            ],
            "name": "safeTransferFrom",
            "outputs": [],
            "stateMutability": "nonpayable",
            "type": "function"
        },
        {
            "inputs": [
                {
                    "internalType": "address",
                    "name": "from",
                    "type": "address"
                },
                {
                    "internalType": "address",
                    "name": "to",
                    "type": "address"
                },
                {
                    "internalType": "uint256",
                    "name": "tokenId",
                    "type": "uint256"
                },
                {
                    "internalType": "bytes",
                    "name": "_data",
                    "type": "bytes"
                }
            ],
            "name": "safeTransferFrom",
            "outputs": [],
            "stateMutability": "nonpayable",
            "type": "function"
        },
        {
            "inputs": [
                {
                    "internalType": "address",
                    "name": "operator",
                    "type": "address"
                },
                {
                    "internalType": "bool",
                    "name": "approved",
                    "type": "bool"
                }
            ],
            "name": "setApprovalForAll",
            "outputs": [],
            "stateMutability": "nonpayable",
            "type": "function"
        },
        {
            "inputs": [
                {
                    "internalType": "uint256",
                    "name": "_rent",
                    "type": "uint256"
                }
            ],
            "name": "setRentperMonth",
            "outputs": [],
            "stateMutability": "nonpayable",
            "type": "function"
        },
        {
            "inputs": [],
            "name": "streetAddress",
            "outputs": [
                {
                    "internalType": "string",
                    "name": "",
                    "type": "string"
                }
            ],
            "stateMutability": "view",
            "type": "function"
        },
        {
            "inputs": [
                {
                    "internalType": "bytes4",
                    "name": "interfaceId",
                    "type": "bytes4"
                }
            ],
            "name": "supportsInterface",
            "outputs": [
                {
                    "internalType": "bool",
                    "name": "",
                    "type": "bool"
                }
            ],
            "stateMutability": "view",
            "type": "function"
        },
        {
            "inputs": [],
            "name": "symbol",
            "outputs": [
                {
                    "internalType": "string",
                    "name": "",
                    "type": "string"
                }
            ],
            "stateMutability": "view",
            "type": "function"
        },
        {
            "inputs": [],
            "name": "tenant",
            "outputs": [
                {
                    "internalType": "address",
                    "name": "",
                    "type": "address"
                }
            ],
            "stateMutability": "view",
            "type": "function"
        },
        {
            "inputs": [
                {
                    "internalType": "uint256",
                    "name": "index",
                    "type": "uint256"
                }
            ],
            "name": "tokenByIndex",
            "outputs": [
                {
                    "internalType": "uint256",
                    "name": "",
                    "type": "uint256"
                }
            ],
            "stateMutability": "view",
            "type": "function"
        },
        {
            "inputs": [
                {
                    "internalType": "address",
                    "name": "owner",
                    "type": "address"
                },
                {
                    "internalType": "uint256",
                    "name": "index",
                    "type": "uint256"
                }
            ],
            "name": "tokenOfOwnerByIndex",
            "outputs": [
                {
                    "internalType": "uint256",
                    "name": "",
                    "type": "uint256"
                }
            ],
            "stateMutability": "view",
            "type": "function"
        },
        {
            "inputs": [
                {
                    "internalType": "uint256",
                    "name": "tokenId",
                    "type": "uint256"
                }
            ],
            "name": "tokenURI",
            "outputs": [
                {
                    "internalType": "string",
                    "name": "",
                    "type": "string"
                }
            ],
            "stateMutability": "view",
            "type": "function"
        },
        {
            "inputs": [],
            "name": "totalSupply",
            "outputs": [
                {
                    "internalType": "uint256",
                    "name": "",
                    "type": "uint256"
                }
            ],
            "stateMutability": "view",
            "type": "function"
        },
        {
            "inputs": [
                {
                    "internalType": "address",
                    "name": "from",
                    "type": "address"
                },
                {
                    "internalType": "address",
                    "name": "to",
                    "type": "address"
                },
                {
                    "internalType": "uint256",
                    "name": "tokenId",
                    "type": "uint256"
                }
            ],
            "name": "transferFrom",
            "outputs": [],
            "stateMutability": "nonpayable",
            "type": "function"
        },
        {
            "stateMutability": "payable",
            "type": "receive"
        }
    ],
    "bytecode": "60a0604052600080546001600160a01b03191673cd0308d313678777820010d0467430362936f57b1781556002805460ff1916811790556004553480156200004657600080fd5b5060405162001ea038038062001ea08339810160408190526200006991620001d4565b6040518060400160405280600881526020016750726f706572747960c01b8152506040518060400160405280600881526020016750524f504552545960c01b8152508160059080519060200190620000c392919062000118565b508051620000d990600690602084019062000118565b50508251620000f19150600e90602085019062000118565b506001805460808190529060006200010983620002b9565b9091555050600f555062000320565b8280546200012690620002e3565b90600052602060002090601f0160209004810192826200014a576000855562000195565b82601f106200016557805160ff191683800117855562000195565b8280016001018555821562000195579182015b828111156200019557825182559160200191906001019062000178565b50620001a3929150620001a7565b5090565b5b80821115620001a35760008155600101620001a8565b634e487b7160e01b600052604160045260246000fd5b60008060408385031215620001e857600080fd5b82516001600160401b03808211156200020057600080fd5b818501915085601f8301126200021557600080fd5b8151818111156200022a576200022a620001be565b604051601f8201601f19908116603f01168101908382118183101715620002555762000255620001be565b816040528281526020935088848487010111156200027257600080fd5b600091505b8282101562000296578482018401518183018501529083019062000277565b82821115620002a85760008484830101525b969092015195979596505050505050565b6000600019821415620002dc57634e487b7160e01b600052601160045260246000fd5b5060010190565b600181811c90821680620002f857607f821691505b602082108114156200031a57634e487b7160e01b600052602260045260246000fd5b50919050565b608051611b566200034a600039600081816108ac01528181610bcb0152610f960152611b566000f3fe60806040526004361061016a5760003560e01c80634f6ccce7116100d1578063a22cb4651161008a578063c87b56dd11610064578063c87b56dd146104b4578063d2d744a9146104d4578063e985e9c5146104f4578063fcc8f7931461053d57600080fd5b8063a22cb46514610454578063adf0779114610474578063b88d4fde1461049457600080fd5b80634f6ccce71461039f5780635bf8633a146103bf5780636352211e146103df57806370a08231146103ff5780638da5cb5b1461041f57806395d89b411461043f57600080fd5b806319fde1f61161012357806319fde1f6146102d257806323b872dd1461030a5780632f745c591461032a57806342842e0e1461034a57806347d905761461036a5780634b4a37fc1461037f57600080fd5b806301ffc9a7146101fa57806306fdde031461022f578063081812fc14610251578063095ea7b31461028957806318160ddd146102ab5780631998aeef146102ca57600080fd5b366101f55760405162461bcd60e51b815260206004820152604a60248201527f506c6561736520646f206e6f742073656e642066756e6473206469726563746c60448201527f7920746f20746869732070726f706572747920736d61727420636f6e747261636064820152693a1030b2323932b9b99760b11b608482015260a4015b60405180910390fd5b600080fd5b34801561020657600080fd5b5061021a61021536600461167f565b61056a565b60405190151581526020015b60405180910390f35b34801561023b57600080fd5b506102446105d7565b60405161022691906116f4565b34801561025d57600080fd5b5061027161026c366004611707565b610669565b6040516001600160a01b039091168152602001610226565b34801561029557600080fd5b506102a96102a4366004611735565b6106f4565b005b3480156102b757600080fd5b506004545b604051908152602001610226565b6102a961080c565b3480156102de57600080fd5b5061021a6102ed366004611761565b6001600160a01b0316600090815260106020526040902054151590565b34801561031657600080fd5b506102a961032536600461177e565b6108f5565b34801561033657600080fd5b506102bc610345366004611735565b610900565b34801561035657600080fd5b506102a961036536600461177e565b610a79565b34801561037657600080fd5b50610244610a94565b34801561038b57600080fd5b506102a961039a366004611761565b610b22565b3480156103ab57600080fd5b506102bc6103ba366004611707565b610c1d565b3480156103cb57600080fd5b50600b54610271906001600160a01b031681565b3480156103eb57600080fd5b506102716103fa366004611707565b610c86565b34801561040b57600080fd5b506102bc61041a366004611761565b610c98565b34801561042b57600080fd5b50600c54610271906001600160a01b031681565b34801561044b57600080fd5b50610244610d29565b34801561046057600080fd5b506102a961046f3660046117bf565b610d38565b34801561048057600080fd5b50600d54610271906001600160a01b031681565b3480156104a057600080fd5b506102a96104af366004611813565b610df6565b3480156104c057600080fd5b506102446104cf366004611707565b610e2f565b3480156104e057600080fd5b506102a96104ef366004611707565b610f09565b34801561050057600080fd5b5061021a61050f3660046118f3565b6001600160a01b039182166000908152600a6020908152604080832093909416825291909152205460ff1690565b34801561054957600080fd5b506102bc610558366004611761565b60106020526000908152604090205481565b60006001600160e01b031982166380ac58cd60e01b148061059b57506001600160e01b03198216635b5e139f60e01b145b806105b657506001600160e01b0319821663780e9d6360e01b145b806105d157506301ffc9a760e01b6001600160e01b03198316145b92915050565b6060600580546105e690611921565b80601f016020809104026020016040519081016040528092919081815260200182805461061290611921565b801561065f5780601f106106345761010080835404028352916020019161065f565b820191906000526020600020905b81548152906001019060200180831161064257829003601f168201915b5050505050905090565b6000610676826004541190565b6106d85760405162461bcd60e51b815260206004820152602d60248201527f455243373231413a20617070726f76656420717565727920666f72206e6f6e6560448201526c3c34b9ba32b73a103a37b5b2b760991b60648201526084016101ec565b506000908152600960205260409020546001600160a01b031690565b60006106ff82610c86565b9050806001600160a01b0316836001600160a01b0316141561076e5760405162461bcd60e51b815260206004820152602260248201527f455243373231413a20617070726f76616c20746f2063757272656e74206f776e60448201526132b960f11b60648201526084016101ec565b336001600160a01b038216148061078a575061078a813361050f565b6107fc5760405162461bcd60e51b815260206004820152603960248201527f455243373231413a20617070726f76652063616c6c6572206973206e6f74206f60448201527f776e6572206e6f7220617070726f76656420666f7220616c6c0000000000000060648201526084016101ec565b610807838383610fe7565b505050565b30806001600160a01b0316638da5cb5b6040518163ffffffff1660e01b8152600401602060405180830381865afa15801561084b573d6000803e3d6000fd5b505050506040513d601f19601f8201168201806040525081019061086f919061195c565b6001600160a01b0316336001600160a01b0316141561088d57600080fd5b33600081815260106020526040808220349081905590519091829184917f0000000000000000000000000000000000000000000000000000000000000000917fa6fbc5ac2f3da3455d4add21d1ccda7e94962774d79e098e04a6a6b2cf1dc2429190a4505050565b610807838383611043565b600061090b83610c98565b82106109645760405162461bcd60e51b815260206004820152602260248201527f455243373231413a206f776e657220696e646578206f7574206f6620626f756e604482015261647360f01b60648201526084016101ec565b600061096f60045490565b905060008060005b83811015610a19576000818152600760209081526040918290208251808401909352546001600160a01b038116808452600160a01b90910467ffffffffffffffff1691830191909152156109ca57805192505b876001600160a01b0316836001600160a01b03161415610a0657868414156109f8575093506105d192505050565b83610a028161198f565b9450505b5080610a118161198f565b915050610977565b5060405162461bcd60e51b815260206004820152602e60248201527f455243373231413a20756e61626c6520746f2067657420746f6b656e206f662060448201526d0deeedccae440c4f240d2dcc8caf60931b60648201526084016101ec565b61080783838360405180602001604052806000815250610df6565b600e8054610aa190611921565b80601f0160208091040260200160405190810160405280929190818152602001828054610acd90611921565b8015610b1a5780601f10610aef57610100808354040283529160200191610b1a565b820191906000526020600020905b815481529060010190602001808311610afd57829003601f168201915b505050505081565b30806001600160a01b0316638da5cb5b6040518163ffffffff1660e01b8152600401602060405180830381865afa158015610b61573d6000803e3d6000fd5b505050506040513d601f19601f82011682018060405250810190610b85919061195c565b6001600160a01b0316336001600160a01b031614610ba257600080fd5b600d80546001600160a01b0319166001600160a01b038416908117909155600f546040519081527f0000000000000000000000000000000000000000000000000000000000000000907fbe42c4d841d0b5346cf2ff45653139f85890a79b72066505e8797077b4752289906020015b60405180910390a35050565b6000610c2860045490565b8210610c825760405162461bcd60e51b815260206004820152602360248201527f455243373231413a20676c6f62616c20696e646578206f7574206f6620626f756044820152626e647360e81b60648201526084016101ec565b5090565b6000610c9182611389565b5192915050565b60006001600160a01b038216610d045760405162461bcd60e51b815260206004820152602b60248201527f455243373231413a2062616c616e636520717565727920666f7220746865207a60448201526a65726f206164647265737360a81b60648201526084016101ec565b506001600160a01b03166000908152600860205260409020546001600160801b031690565b6060600680546105e690611921565b6001600160a01b038216331415610d915760405162461bcd60e51b815260206004820152601a60248201527f455243373231413a20617070726f766520746f2063616c6c657200000000000060448201526064016101ec565b336000818152600a602090815260408083206001600160a01b03871680855290835292819020805460ff191686151590811790915590519081529192917f17307eab39ab6107e8899845ad3d59bd9653f200f220920489ca2b5937696c319101610c11565b610e01848484611043565b610e0d84848484611469565b610e295760405162461bcd60e51b81526004016101ec906119aa565b50505050565b6060610e3c826004541190565b610ea05760405162461bcd60e51b815260206004820152602f60248201527f4552433732314d657461646174613a2055524920717565727920666f72206e6f60448201526e3732bc34b9ba32b73a103a37b5b2b760891b60648201526084016101ec565b6000610eb760408051602081019091526000815290565b90506000815111610ed75760405180602001604052806000815250610f02565b80610ee184611568565b604051602001610ef29291906119fd565b6040516020818303038152906040525b9392505050565b30806001600160a01b0316638da5cb5b6040518163ffffffff1660e01b8152600401602060405180830381865afa158015610f48573d6000803e3d6000fd5b505050506040513d601f19601f82011682018060405250810190610f6c919061195c565b6001600160a01b0316336001600160a01b031614610f8957600080fd5b600f8290556040518281527f0000000000000000000000000000000000000000000000000000000000000000907f89a6230abe3080cb1eca7644bf488fb3b97fa996cc63c48e752739fc24ba07689060200160405180910390a25050565b60008281526009602052604080822080546001600160a01b0319166001600160a01b0387811691821790925591518593918516917f8c5be1e5ebec7d5bd14f71427d1e84f3dd0314c0f7b2291e5b200ac8c7c3b92591a4505050565b600061104e82611389565b80519091506000906001600160a01b0316336001600160a01b0316148061108557503361107a84610669565b6001600160a01b0316145b8061109757508151611097903361050f565b9050806111015760405162461bcd60e51b815260206004820152603260248201527f455243373231413a207472616e736665722063616c6c6572206973206e6f74206044820152711bdddb995c881b9bdc88185c1c1c9bdd995960721b60648201526084016101ec565b846001600160a01b031682600001516001600160a01b0316146111755760405162461bcd60e51b815260206004820152602660248201527f455243373231413a207472616e736665722066726f6d20696e636f72726563746044820152651037bbb732b960d11b60648201526084016101ec565b6001600160a01b0384166111d95760405162461bcd60e51b815260206004820152602560248201527f455243373231413a207472616e7366657220746f20746865207a65726f206164604482015264647265737360d81b60648201526084016101ec565b6111e96000848460000151610fe7565b6001600160a01b03858116600090815260086020908152604080832080546fffffffffffffffffffffffffffffffff198082166001600160801b03928316600019018316179092558986168086528386208054938416938316600190810190931693909317909255825180840184529182524267ffffffffffffffff9081168386019081528a8752600790955292852091518254945196166001600160e01b031990941693909317600160a01b959092169490940217909255906112ae908590611a2c565b6000818152600760205260409020549091506001600160a01b0316611340576112d8816004541190565b156113405760408051808201825284516001600160a01b03908116825260208087015167ffffffffffffffff9081168285019081526000878152600790935294909120925183549451909116600160a01b026001600160e01b03199094169116179190911790555b83856001600160a01b0316876001600160a01b03167fddf252ad1be2c89b69c2b068fc378daa952ba7f163c4a11628f55a4df523b3ef60405160405180910390a4505050505050565b60408051808201909152600080825260208201526113a8826004541190565b6114075760405162461bcd60e51b815260206004820152602a60248201527f455243373231413a206f776e657220717565727920666f72206e6f6e657869736044820152693a32b73a103a37b5b2b760b11b60648201526084016101ec565b815b6000818152600760209081526040918290208251808401909352546001600160a01b038116808452600160a01b90910467ffffffffffffffff169183019190915215611456579392505050565b508061146181611a44565b915050611409565b60006001600160a01b0384163b1561155c57604051630a85bd0160e11b81526001600160a01b0385169063150b7a02906114ad903390899088908890600401611a5b565b6020604051808303816000875af19250505080156114e8575060408051601f3d908101601f191682019092526114e591810190611a98565b60015b611542573d808015611516576040519150601f19603f3d011682016040523d82523d6000602084013e61151b565b606091505b50805161153a5760405162461bcd60e51b81526004016101ec906119aa565b805181602001fd5b6001600160e01b031916630a85bd0160e11b149050611560565b5060015b949350505050565b60608161158c5750506040805180820190915260018152600360fc1b602082015290565b8160005b81156115b657806115a08161198f565b91506115af9050600a83611acb565b9150611590565b60008167ffffffffffffffff8111156115d1576115d16117fd565b6040519080825280601f01601f1916602001820160405280156115fb576020820181803683370190505b5090505b841561156057611610600183611adf565b915061161d600a86611af6565b611628906030611a2c565b60f81b81838151811061163d5761163d611b0a565b60200101906001600160f81b031916908160001a90535061165f600a86611acb565b94506115ff565b6001600160e01b03198116811461167c57600080fd5b50565b60006020828403121561169157600080fd5b8135610f0281611666565b60005b838110156116b757818101518382015260200161169f565b83811115610e295750506000910152565b600081518084526116e081602086016020860161169c565b601f01601f19169290920160200192915050565b602081526000610f0260208301846116c8565b60006020828403121561171957600080fd5b5035919050565b6001600160a01b038116811461167c57600080fd5b6000806040838503121561174857600080fd5b823561175381611720565b946020939093013593505050565b60006020828403121561177357600080fd5b8135610f0281611720565b60008060006060848603121561179357600080fd5b833561179e81611720565b925060208401356117ae81611720565b929592945050506040919091013590565b600080604083850312156117d257600080fd5b82356117dd81611720565b9150602083013580151581146117f257600080fd5b809150509250929050565b634e487b7160e01b600052604160045260246000fd5b6000806000806080858703121561182957600080fd5b843561183481611720565b9350602085013561184481611720565b925060408501359150606085013567ffffffffffffffff8082111561186857600080fd5b818701915087601f83011261187c57600080fd5b81358181111561188e5761188e6117fd565b604051601f8201601f19908116603f011681019083821181831017156118b6576118b66117fd565b816040528281528a60208487010111156118cf57600080fd5b82602086016020830137600060208483010152809550505050505092959194509250565b6000806040838503121561190657600080fd5b823561191181611720565b915060208301356117f281611720565b600181811c9082168061193557607f821691505b6020821081141561195657634e487b7160e01b600052602260045260246000fd5b50919050565b60006020828403121561196e57600080fd5b8151610f0281611720565b634e487b7160e01b600052601160045260246000fd5b60006000198214156119a3576119a3611979565b5060010190565b60208082526033908201527f455243373231413a207472616e7366657220746f206e6f6e204552433732315260408201527232b1b2b4bb32b91034b6b83632b6b2b73a32b960691b606082015260800190565b60008351611a0f81846020880161169c565b835190830190611a2381836020880161169c565b01949350505050565b60008219821115611a3f57611a3f611979565b500190565b600081611a5357611a53611979565b506000190190565b6001600160a01b0385811682528416602082015260408101839052608060608201819052600090611a8e908301846116c8565b9695505050505050565b600060208284031215611aaa57600080fd5b8151610f0281611666565b634e487b7160e01b600052601260045260246000fd5b600082611ada57611ada611ab5565b500490565b600082821015611af157611af1611979565b500390565b600082611b0557611b05611ab5565b500690565b634e487b7160e01b600052603260045260246000fdfea2646970667358221220da1c6e82b81f914c2f808da46e17f480a302166f9b0295e7a5dd1a996052b8b864736f6c634300080b0033",
    "sourcePath": "d:/hodefy/contracts/hodefy.sol",
    "compiler": {
        "name": "solc",
        "version": "0.8.11+commit.d7f03943"
    },
    "functionHashes": {
        "approve(address,uint256)": "095ea7b3",
        "balanceOf(address)": "70a08231",
        "bid()": "1998aeef",
        "bidders(address)": "fcc8f793",
        "getApproved(uint256)": "081812fc",
        "isApprovedForAll(address,address)": "e985e9c5",
        "isBidder(address)": "19fde1f6",
        "lease(address)": "4b4a37fc",
        "name()": "06fdde03",
        "nftAddress()": "5bf8633a",
        "owner()": "8da5cb5b",
        "ownerOf(uint256)": "6352211e",
        "safeTransferFrom(address,address,uint256)": "42842e0e",
        "safeTransferFrom(address,address,uint256,bytes)": "b88d4fde",
        "setApprovalForAll(address,bool)": "a22cb465",
        "setRentperMonth(uint256)": "d2d744a9",
        "streetAddress()": "47d90576",
        "supportsInterface(bytes4)": "01ffc9a7",
        "symbol()": "95d89b41",
        "tenant()": "adf07791",
        "tokenByIndex(uint256)": "4f6ccce7",
        "tokenOfOwnerByIndex(address,uint256)": "2f745c59",
        "tokenURI(uint256)": "c87b56dd",
        "totalSupply()": "18160ddd",
        "transferFrom(address,address,uint256)": "23b872dd"
    },
    "gasEstimates": {
        "creation": {
            "codeDepositCost": "1399600",
            "executionCost": "infinite",
            "totalCost": "infinite"
        },
        "external": {
            "approve(address,uint256)": "infinite",
            "balanceOf(address)": "2690",
            "bid()": "infinite",
            "bidders(address)": "2623",
            "getApproved(uint256)": "4700",
            "isApprovedForAll(address,address)": "infinite",
            "isBidder(address)": "2555",
            "lease(address)": "infinite",
            "name()": "infinite",
            "nftAddress()": "2382",
            "owner()": "2448",
            "ownerOf(uint256)": "infinite",
            "safeTransferFrom(address,address,uint256)": "infinite",
            "safeTransferFrom(address,address,uint256,bytes)": "infinite",
            "setApprovalForAll(address,bool)": "26679",
            "setRentperMonth(uint256)": "infinite",
            "streetAddress()": "infinite",
            "supportsInterface(bytes4)": "589",
            "symbol()": "infinite",
            "tenant()": "2404",
            "tokenByIndex(uint256)": "2516",
            "tokenOfOwnerByIndex(address,uint256)": "infinite",
            "tokenURI(uint256)": "infinite",
            "totalSupply()": "2393",
            "transferFrom(address,address,uint256)": "infinite"
        }
    }
}