{
  "_format": "hh-sol-artifact-1",
  "contractName": "Hodefy",
  "sourceName": "contracts/hodefy.sol",
  "abi": [
    {
      "inputs": [],
      "stateMutability": "nonpayable",
      "type": "constructor"
    },
    {
      "anonymous": false,
      "inputs": [
        {
          "indexed": true,
          "internalType": "bytes32",
          "name": "id",
          "type": "bytes32"
        }
      ],
      "name": "ChainlinkCancelled",
      "type": "event"
    },
    {
      "anonymous": false,
      "inputs": [
        {
          "indexed": true,
          "internalType": "bytes32",
          "name": "id",
          "type": "bytes32"
        }
      ],
      "name": "ChainlinkFulfilled",
      "type": "event"
    },
    {
      "anonymous": false,
      "inputs": [
        {
          "indexed": true,
          "internalType": "bytes32",
          "name": "id",
          "type": "bytes32"
        }
      ],
      "name": "ChainlinkRequested",
      "type": "event"
    },
    {
      "anonymous": false,
      "inputs": [
        {
          "indexed": false,
          "internalType": "uint8",
          "name": "NewFee",
          "type": "uint8"
        }
      ],
      "name": "ChangedFee",
      "type": "event"
    },
    {
      "inputs": [
        {
          "internalType": "bytes32",
          "name": "_bytes32",
          "type": "bytes32"
        }
      ],
      "name": "bytes32ToString",
      "outputs": [
        {
          "internalType": "string",
          "name": "",
          "type": "string"
        }
      ],
      "stateMutability": "pure",
      "type": "function"
    },
    {
      "inputs": [
        {
          "internalType": "bytes32",
          "name": "_requestId",
          "type": "bytes32"
        },
        {
          "internalType": "bytes32",
          "name": "_ownerAddress",
          "type": "bytes32"
        },
        {
          "internalType": "bytes32",
          "name": "_city",
          "type": "bytes32"
        },
        {
          "internalType": "bytes32",
          "name": "_country",
          "type": "bytes32"
        },
        {
          "internalType": "bytes32",
          "name": "_streetAddress",
          "type": "bytes32"
        },
        {
          "internalType": "bytes32",
          "name": "_imgLink",
          "type": "bytes32"
        }
      ],
      "name": "fulfill",
      "outputs": [],
      "stateMutability": "nonpayable",
      "type": "function"
    },
    {
      "inputs": [
        {
          "internalType": "string",
          "name": "_propertyID",
          "type": "string"
        }
      ],
      "name": "requestPropertyData",
      "outputs": [
        {
          "internalType": "bytes32",
          "name": "requestId",
          "type": "bytes32"
        }
      ],
      "stateMutability": "nonpayable",
      "type": "function"
    }
  ],
  "bytecode": "0x6080604052600160045573cd0308d313678777820010d0467430362936f57b600660006101000a81548173ffffffffffffffffffffffffffffffffffffffff021916908373ffffffffffffffffffffffffffffffffffffffff1602179055506002600b60006101000a81548160ff021916908360ff1602179055503480156200008757600080fd5b50620000986200012960201b60201c565b7358bbdbfb6fca3129b91f0dbe372098123b38b5e9600760006101000a81548173ffffffffffffffffffffffffffffffffffffffff021916908373ffffffffffffffffffffffffffffffffffffffff1602179055507f613832343935613866643562346362343932623137646330636333316134666560088190555067016345785d8a0000600981905550620002a1565b620001bf73c89bd4e1632d3a43cb03aaad5262cbe4038bc57173ffffffffffffffffffffffffffffffffffffffff166338cc48316040518163ffffffff1660e01b8152600401602060405180830381865afa1580156200018d573d6000803e3d6000fd5b505050506040513d601f19601f82011682018060405250810190620001b391906200026f565b620001c160201b60201c565b565b80600260006101000a81548173ffffffffffffffffffffffffffffffffffffffff021916908373ffffffffffffffffffffffffffffffffffffffff16021790555050565b600080fd5b600073ffffffffffffffffffffffffffffffffffffffff82169050919050565b600062000237826200020a565b9050919050565b62000249816200022a565b81146200025557600080fd5b50565b60008151905062000269816200023e565b92915050565b60006020828403121562000288576200028762000205565b5b6000620002988482850162000258565b91505092915050565b611ba280620002b16000396000f3fe608060405234801561001057600080fd5b50600436106100415760003560e01c80633347ae0a146100465780639201de551461007657806394d9d629146100a6575b600080fd5b610060600480360381019061005b919061111d565b6100c2565b60405161006d919061117f565b60405180910390f35b610090600480360381019061008b91906111c6565b610451565b60405161009d919061127b565b60405180910390f35b6100c060048036038101906100bb919061129d565b6105ec565b005b6000600660009054906101000a900473ffffffffffffffffffffffffffffffffffffffff1673ffffffffffffffffffffffffffffffffffffffff163373ffffffffffffffffffffffffffffffffffffffff161461011e57600080fd5b6000610134600854306394d9d62960e01b61073b565b905061019f6040518060400160405280600381526020017f67657400000000000000000000000000000000000000000000000000000000008152508460405160200161018091906113d8565b6040516020818303038152906040528361076c9092919063ffffffff16565b61021e6040518060400160405280600481526020017f70617468000000000000000000000000000000000000000000000000000000008152506040518060400160405280601681526020017f312e70726f6a6563742e6f776e657241646472657373000000000000000000008152508361076c9092919063ffffffff16565b61029d6040518060400160405280600481526020017f70617468000000000000000000000000000000000000000000000000000000008152506040518060400160405280601781526020017f312e70726f6a6563742e737472656574416464726573730000000000000000008152508361076c9092919063ffffffff16565b61031c6040518060400160405280600481526020017f70617468000000000000000000000000000000000000000000000000000000008152506040518060400160405280600e81526020017f312e70726f6a6563742e636974790000000000000000000000000000000000008152508361076c9092919063ffffffff16565b61039b6040518060400160405280600481526020017f70617468000000000000000000000000000000000000000000000000000000008152506040518060400160405280601181526020017f312e70726f6a6563742e636f756e7472790000000000000000000000000000008152508361076c9092919063ffffffff16565b61041a6040518060400160405280600481526020017f70617468000000000000000000000000000000000000000000000000000000008152506040518060400160405280600e81526020017f312e70726f6a6563742e6c696e6b0000000000000000000000000000000000008152508361076c9092919063ffffffff16565b610449600760009054906101000a900473ffffffffffffffffffffffffffffffffffffffff168260095461079f565b915050919050565b606060005b60208160ff161080156104a85750600060f81b838260ff166020811061047f5761047e6113fa565b5b1a60f81b7effffffffffffffffffffffffffffffffffffffffffffffffffffffffffffff191614155b156104c05780806104b890611465565b915050610456565b60008160ff1667ffffffffffffffff8111156104df576104de610ff2565b5b6040519080825280601f01601f1916602001820160405280156105115781602001600182028036833780820191505090505b509050600091505b60208260ff1610801561056b5750600060f81b848360ff1660208110610542576105416113fa565b5b1a60f81b7effffffffffffffffffffffffffffffffffffffffffffffffffffffffffffff191614155b156105e257838260ff1660208110610586576105856113fa565b5b1a60f81b818360ff16815181106105a05761059f6113fa565b5b60200101907effffffffffffffffffffffffffffffffffffffffffffffffffffffffffffff1916908160001a90535081806105da90611465565b925050610519565b8092505050919050565b856005600082815260200190815260200160002060009054906101000a900473ffffffffffffffffffffffffffffffffffffffff1673ffffffffffffffffffffffffffffffffffffffff163373ffffffffffffffffffffffffffffffffffffffff161461068e576040517f08c379a000000000000000000000000000000000000000000000000000000000815260040161068590611501565b60405180910390fd5b6005600082815260200190815260200160002060006101000a81549073ffffffffffffffffffffffffffffffffffffffff0219169055807f7cc135e0cebb02c3480ae5d74d377283180a2601f8f644edf7987b009316c63a60405160405180910390a260008660601c9050600061070487610451565b9050600061071187610451565b9050600061071e87610451565b9050600061072b87610451565b9050505050505050505050505050565b610743610f3c565b61074b610f3c565b6107628585858461086b909392919063ffffffff16565b9150509392505050565b61078382846080015161091b90919063ffffffff16565b61079a81846080015161091b90919063ffffffff16565b505050565b60008060045490506001816107b4919061152b565b6004819055506000634042994660e01b60008087600001513089604001518760018c60800151600001516040516024016107f5989796959493929190611661565b604051602081830303815290604052907bffffffffffffffffffffffffffffffffffffffffffffffffffffffff19166020820180517bffffffffffffffffffffffffffffffffffffffffffffffffffffffff8381831617835250505050905061086086838684610940565b925050509392505050565b610873610f3c565b6108838560800151610100610ad5565b508385600001818152505082856020019073ffffffffffffffffffffffffffffffffffffffff16908173ffffffffffffffffffffffffffffffffffffffff16815250508185604001907bffffffffffffffffffffffffffffffffffffffffffffffffffffffff191690817bffffffffffffffffffffffffffffffffffffffffffffffffffffffff191681525050849050949350505050565b6109288260038351610b3f565b61093b8183610cc490919063ffffffff16565b505050565b6000308460405160200161095592919061179f565b604051602081830303815290604052805190602001209050846005600083815260200190815260200160002060006101000a81548173ffffffffffffffffffffffffffffffffffffffff021916908373ffffffffffffffffffffffffffffffffffffffff160217905550807fb5e6e01e79f91267dc17b4e6314d5d4d03593d2ceee0fbb452b750bd70ea5af960405160405180910390a2600260009054906101000a900473ffffffffffffffffffffffffffffffffffffffff1673ffffffffffffffffffffffffffffffffffffffff16634000aea08685856040518463ffffffff1660e01b8152600401610a4b939291906117cb565b6020604051808303816000875af1158015610a6a573d6000803e3d6000fd5b505050506040513d601f19601f82011682018060405250810190610a8e9190611841565b610acd576040517f08c379a0000000000000000000000000000000000000000000000000000000008152600401610ac4906118e0565b60405180910390fd5b949350505050565b610add610fa9565b6000602083610aec919061192f565b14610b1857602082610afe919061192f565b6020610b0a9190611960565b82610b15919061152b565b91505b81836020018181525050604051808452600081528281016020016040525082905092915050565b60178167ffffffffffffffff1611610b7657610b708160058460ff16901b60ff161784610ce690919063ffffffff16565b50610cbf565b60ff8167ffffffffffffffff1611610bcc57610ba5601860058460ff16901b1784610ce690919063ffffffff16565b50610bc68167ffffffffffffffff16600185610d069092919063ffffffff16565b50610cbe565b61ffff8167ffffffffffffffff1611610c2357610bfc601960058460ff16901b1784610ce690919063ffffffff16565b50610c1d8167ffffffffffffffff16600285610d069092919063ffffffff16565b50610cbd565b63ffffffff8167ffffffffffffffff1611610c7c57610c55601a60058460ff16901b1784610ce690919063ffffffff16565b50610c768167ffffffffffffffff16600485610d069092919063ffffffff16565b50610cbc565b610c99601b60058460ff16901b1784610ce690919063ffffffff16565b50610cba8167ffffffffffffffff16600885610d069092919063ffffffff16565b505b5b5b5b505050565b610ccc610fa9565b610cde83846000015151848551610d28565b905092915050565b610cee610fa9565b610cfe8384600001515184610e17565b905092915050565b610d0e610fa9565b610d1f848560000151518585610e6e565b90509392505050565b610d30610fa9565b8251821115610d3e57600080fd5b84602001518285610d4f919061152b565b1115610d8457610d83856002610d7488602001518887610d6f919061152b565b610efc565b610d7e9190611994565b610f18565b5b600080865180518760208301019350808887011115610da35787860182525b60208701925050505b60208410610dea5780518252602082610dc5919061152b565b9150602081610dd4919061152b565b9050602084610de39190611960565b9350610dac565b60006001856020036101000a03905080198251168184511681811785525050508692505050949350505050565b610e1f610fa9565b83602001518310610e4557610e448460028660200151610e3f9190611994565b610f18565b5b8351805160208583010184815381861415610e61576001820183525b5050508390509392505050565b610e76610fa9565b84602001518483610e87919061152b565b1115610eaf57610eae8560028685610e9f919061152b565b610ea99190611994565b610f18565b5b6000600183610100610ec19190611b21565b610ecb9190611960565b90508551838682010185831982511617815281518588011115610eee5784870182525b505085915050949350505050565b600081831115610f0e57829050610f12565b8190505b92915050565b600082600001519050610f2b8383610ad5565b50610f368382610cc4565b50505050565b6040518060a0016040528060008019168152602001600073ffffffffffffffffffffffffffffffffffffffff16815260200160007bffffffffffffffffffffffffffffffffffffffffffffffffffffffff1916815260200160008152602001610fa3610fa9565b81525090565b604051806040016040528060608152602001600081525090565b6000604051905090565b600080fd5b600080fd5b600080fd5b600080fd5b6000601f19601f8301169050919050565b7f4e487b7100000000000000000000000000000000000000000000000000000000600052604160045260246000fd5b61102a82610fe1565b810181811067ffffffffffffffff8211171561104957611048610ff2565b5b80604052505050565b600061105c610fc3565b90506110688282611021565b919050565b600067ffffffffffffffff82111561108857611087610ff2565b5b61109182610fe1565b9050602081019050919050565b82818337600083830152505050565b60006110c06110bb8461106d565b611052565b9050828152602081018484840111156110dc576110db610fdc565b5b6110e784828561109e565b509392505050565b600082601f83011261110457611103610fd7565b5b81356111148482602086016110ad565b91505092915050565b60006020828403121561113357611132610fcd565b5b600082013567ffffffffffffffff81111561115157611150610fd2565b5b61115d848285016110ef565b91505092915050565b6000819050919050565b61117981611166565b82525050565b60006020820190506111946000830184611170565b92915050565b6111a381611166565b81146111ae57600080fd5b50565b6000813590506111c08161119a565b92915050565b6000602082840312156111dc576111db610fcd565b5b60006111ea848285016111b1565b91505092915050565b600081519050919050565b600082825260208201905092915050565b60005b8381101561122d578082015181840152602081019050611212565b8381111561123c576000848401525b50505050565b600061124d826111f3565b61125781856111fe565b935061126781856020860161120f565b61127081610fe1565b840191505092915050565b600060208201905081810360008301526112958184611242565b905092915050565b60008060008060008060c087890312156112ba576112b9610fcd565b5b60006112c889828a016111b1565b96505060206112d989828a016111b1565b95505060406112ea89828a016111b1565b94505060606112fb89828a016111b1565b935050608061130c89828a016111b1565b92505060a061131d89828a016111b1565b9150509295509295509295565b600081905092915050565b7f687474703a2f2f6c6f63616c686f73743a343030302f70726f7065727469657360008201527f2f00000000000000000000000000000000000000000000000000000000000000602082015250565b600061139160218361132a565b915061139c82611335565b602182019050919050565b60006113b2826111f3565b6113bc818561132a565b93506113cc81856020860161120f565b80840191505092915050565b60006113e382611384565b91506113ef82846113a7565b915081905092915050565b7f4e487b7100000000000000000000000000000000000000000000000000000000600052603260045260246000fd5b7f4e487b7100000000000000000000000000000000000000000000000000000000600052601160045260246000fd5b600060ff82169050919050565b600061147082611458565b915060ff82141561148457611483611429565b5b600182019050919050565b7f536f75726365206d75737420626520746865206f7261636c65206f662074686560008201527f2072657175657374000000000000000000000000000000000000000000000000602082015250565b60006114eb6028836111fe565b91506114f68261148f565b604082019050919050565b6000602082019050818103600083015261151a816114de565b9050919050565b6000819050919050565b600061153682611521565b915061154183611521565b9250827fffffffffffffffffffffffffffffffffffffffffffffffffffffffffffffffff0382111561157657611575611429565b5b828201905092915050565b600073ffffffffffffffffffffffffffffffffffffffff82169050919050565b60006115ac82611581565b9050919050565b6115bc816115a1565b82525050565b6115cb81611521565b82525050565b60007fffffffff0000000000000000000000000000000000000000000000000000000082169050919050565b611606816115d1565b82525050565b600081519050919050565b600082825260208201905092915050565b60006116338261160c565b61163d8185611617565b935061164d81856020860161120f565b61165681610fe1565b840191505092915050565b600061010082019050611677600083018b6115b3565b611684602083018a6115c2565b6116916040830189611170565b61169e60608301886115b3565b6116ab60808301876115fd565b6116b860a08301866115c2565b6116c560c08301856115c2565b81810360e08301526116d78184611628565b90509998505050505050505050565b6000819050919050565b600061170b61170661170184611581565b6116e6565b611581565b9050919050565b600061171d826116f0565b9050919050565b600061172f82611712565b9050919050565b60008160601b9050919050565b600061174e82611736565b9050919050565b600061176082611743565b9050919050565b61177861177382611724565b611755565b82525050565b6000819050919050565b61179961179482611521565b61177e565b82525050565b60006117ab8285611767565b6014820191506117bb8284611788565b6020820191508190509392505050565b60006060820190506117e060008301866115b3565b6117ed60208301856115c2565b81810360408301526117ff8184611628565b9050949350505050565b60008115159050919050565b61181e81611809565b811461182957600080fd5b50565b60008151905061183b81611815565b92915050565b60006020828403121561185757611856610fcd565b5b60006118658482850161182c565b91505092915050565b7f756e61626c6520746f207472616e73666572416e6443616c6c20746f206f726160008201527f636c650000000000000000000000000000000000000000000000000000000000602082015250565b60006118ca6023836111fe565b91506118d58261186e565b604082019050919050565b600060208201905081810360008301526118f9816118bd565b9050919050565b7f4e487b7100000000000000000000000000000000000000000000000000000000600052601260045260246000fd5b600061193a82611521565b915061194583611521565b92508261195557611954611900565b5b828206905092915050565b600061196b82611521565b915061197683611521565b92508282101561198957611988611429565b5b828203905092915050565b600061199f82611521565b91506119aa83611521565b9250817fffffffffffffffffffffffffffffffffffffffffffffffffffffffffffffffff04831182151516156119e3576119e2611429565b5b828202905092915050565b60008160011c9050919050565b6000808291508390505b6001851115611a4557808604811115611a2157611a20611429565b5b6001851615611a305780820291505b8081029050611a3e856119ee565b9450611a05565b94509492505050565b600082611a5e5760019050611b1a565b81611a6c5760009050611b1a565b8160018114611a825760028114611a8c57611abb565b6001915050611b1a565b60ff841115611a9e57611a9d611429565b5b8360020a915084821115611ab557611ab4611429565b5b50611b1a565b5060208310610133831016604e8410600b8410161715611af05782820a905083811115611aeb57611aea611429565b5b611b1a565b611afd84848460016119fb565b92509050818404811115611b1457611b13611429565b5b81810290505b9392505050565b6000611b2c82611521565b9150611b3783611521565b9250611b647fffffffffffffffffffffffffffffffffffffffffffffffffffffffffffffffff8484611a4e565b90509291505056fea26469706673582212202212f228a1ec9427b6742da8ab7b339c9a4119863388e679ea3afa47c6c8dabf64736f6c634300080b0033",
  "linkReferences": {},
  "deployedLinkReferences": {}
}