{
  "_format": "hh-sol-artifact-1",
  "contractName": "Property",
  "sourceName": "contracts/hodefy.sol",
  "abi": [
    {
      "inputs": [
        {
          "internalType": "string",
          "name": "_streetAddress",
          "type": "string"
        },
        {
          "internalType": "string",
          "name": "_city",
          "type": "string"
        },
        {
          "internalType": "string",
          "name": "_country",
          "type": "string"
        },
        {
          "internalType": "string",
          "name": "_imgLink",
          "type": "string"
        },
        {
          "internalType": "address",
          "name": "_owner",
          "type": "address"
        }
      ],
      "stateMutability": "nonpayable",
      "type": "constructor"
    },
    {
      "anonymous": false,
      "inputs": [
        {
          "indexed": true,
          "internalType": "address",
          "name": "owner",
          "type": "address"
        },
        {
          "indexed": true,
          "internalType": "address",
          "name": "approved",
          "type": "address"
        },
        {
          "indexed": true,
          "internalType": "uint256",
          "name": "tokenId",
          "type": "uint256"
        }
      ],
      "name": "Approval",
      "type": "event"
    },
    {
      "anonymous": false,
      "inputs": [
        {
          "indexed": true,
          "internalType": "address",
          "name": "owner",
          "type": "address"
        },
        {
          "indexed": true,
          "internalType": "address",
          "name": "operator",
          "type": "address"
        },
        {
          "indexed": false,
          "internalType": "bool",
          "name": "approved",
          "type": "bool"
        }
      ],
      "name": "ApprovalForAll",
      "type": "event"
    },
    {
      "anonymous": false,
      "inputs": [
        {
          "indexed": true,
          "internalType": "bytes32",
          "name": "id",
          "type": "bytes32"
        }
      ],
      "name": "ChainlinkCancelled",
      "type": "event"
    },
    {
      "anonymous": false,
      "inputs": [
        {
          "indexed": true,
          "internalType": "bytes32",
          "name": "id",
          "type": "bytes32"
        }
      ],
      "name": "ChainlinkFulfilled",
      "type": "event"
    },
    {
      "anonymous": false,
      "inputs": [
        {
          "indexed": true,
          "internalType": "bytes32",
          "name": "id",
          "type": "bytes32"
        }
      ],
      "name": "ChainlinkRequested",
      "type": "event"
    },
    {
      "anonymous": false,
      "inputs": [
        {
          "indexed": false,
          "internalType": "uint8",
          "name": "NewFee",
          "type": "uint8"
        }
      ],
      "name": "ChangedFee",
      "type": "event"
    },
    {
      "anonymous": false,
      "inputs": [
        {
          "indexed": true,
          "internalType": "uint256",
          "name": "id",
          "type": "uint256"
        },
        {
          "indexed": false,
          "internalType": "uint256",
          "name": "rent",
          "type": "uint256"
        },
        {
          "indexed": true,
          "internalType": "address",
          "name": "tenant",
          "type": "address"
        }
      ],
      "name": "Leased",
      "type": "event"
    },
    {
      "anonymous": false,
      "inputs": [
        {
          "indexed": true,
          "internalType": "uint256",
          "name": "id",
          "type": "uint256"
        },
        {
          "indexed": true,
          "internalType": "address",
          "name": "bidder",
          "type": "address"
        },
        {
          "indexed": true,
          "internalType": "uint256",
          "name": "amount",
          "type": "uint256"
        }
      ],
      "name": "NewBidder",
      "type": "event"
    },
    {
      "anonymous": false,
      "inputs": [
        {
          "indexed": true,
          "internalType": "uint256",
          "name": "id",
          "type": "uint256"
        },
        {
          "indexed": false,
          "internalType": "uint256",
          "name": "WEIs",
          "type": "uint256"
        }
      ],
      "name": "RentPerMonthSetTo",
      "type": "event"
    },
    {
      "anonymous": false,
      "inputs": [
        {
          "indexed": true,
          "internalType": "address",
          "name": "from",
          "type": "address"
        },
        {
          "indexed": true,
          "internalType": "address",
          "name": "to",
          "type": "address"
        },
        {
          "indexed": true,
          "internalType": "uint256",
          "name": "tokenId",
          "type": "uint256"
        }
      ],
      "name": "Transfer",
      "type": "event"
    },
    {
      "inputs": [
        {
          "internalType": "address",
          "name": "to",
          "type": "address"
        },
        {
          "internalType": "uint256",
          "name": "tokenId",
          "type": "uint256"
        }
      ],
      "name": "approve",
      "outputs": [],
      "stateMutability": "nonpayable",
      "type": "function"
    },
    {
      "inputs": [
        {
          "internalType": "address",
          "name": "owner",
          "type": "address"
        }
      ],
      "name": "balanceOf",
      "outputs": [
        {
          "internalType": "uint256",
          "name": "",
          "type": "uint256"
        }
      ],
      "stateMutability": "view",
      "type": "function"
    },
    {
      "inputs": [],
      "name": "bid",
      "outputs": [],
      "stateMutability": "payable",
      "type": "function"
    },
    {
      "inputs": [
        {
          "internalType": "address",
          "name": "",
          "type": "address"
        }
      ],
      "name": "bidders",
      "outputs": [
        {
          "internalType": "uint256",
          "name": "",
          "type": "uint256"
        }
      ],
      "stateMutability": "view",
      "type": "function"
    },
    {
      "inputs": [
        {
          "internalType": "bytes32",
          "name": "_bytes32",
          "type": "bytes32"
        }
      ],
      "name": "bytes32ToString",
      "outputs": [
        {
          "internalType": "string",
          "name": "",
          "type": "string"
        }
      ],
      "stateMutability": "pure",
      "type": "function"
    },
    {
      "inputs": [],
      "name": "city",
      "outputs": [
        {
          "internalType": "string",
          "name": "",
          "type": "string"
        }
      ],
      "stateMutability": "view",
      "type": "function"
    },
    {
      "inputs": [],
      "name": "country",
      "outputs": [
        {
          "internalType": "string",
          "name": "",
          "type": "string"
        }
      ],
      "stateMutability": "view",
      "type": "function"
    },
    {
      "inputs": [
        {
          "internalType": "bytes32",
          "name": "_requestId",
          "type": "bytes32"
        },
        {
          "internalType": "bytes32",
          "name": "_ownerAddress",
          "type": "bytes32"
        },
        {
          "internalType": "bytes32",
          "name": "_city",
          "type": "bytes32"
        },
        {
          "internalType": "bytes32",
          "name": "_country",
          "type": "bytes32"
        },
        {
          "internalType": "bytes32",
          "name": "_streetAddress",
          "type": "bytes32"
        },
        {
          "internalType": "bytes32",
          "name": "_imgLink",
          "type": "bytes32"
        }
      ],
      "name": "fulfill",
      "outputs": [],
      "stateMutability": "nonpayable",
      "type": "function"
    },
    {
      "inputs": [
        {
          "internalType": "uint256",
          "name": "tokenId",
          "type": "uint256"
        }
      ],
      "name": "getApproved",
      "outputs": [
        {
          "internalType": "address",
          "name": "",
          "type": "address"
        }
      ],
      "stateMutability": "view",
      "type": "function"
    },
    {
      "inputs": [],
      "name": "imgLink",
      "outputs": [
        {
          "internalType": "string",
          "name": "",
          "type": "string"
        }
      ],
      "stateMutability": "view",
      "type": "function"
    },
    {
      "inputs": [
        {
          "internalType": "address",
          "name": "owner",
          "type": "address"
        },
        {
          "internalType": "address",
          "name": "operator",
          "type": "address"
        }
      ],
      "name": "isApprovedForAll",
      "outputs": [
        {
          "internalType": "bool",
          "name": "",
          "type": "bool"
        }
      ],
      "stateMutability": "view",
      "type": "function"
    },
    {
      "inputs": [
        {
          "internalType": "address",
          "name": "_address",
          "type": "address"
        }
      ],
      "name": "isBidder",
      "outputs": [
        {
          "internalType": "bool",
          "name": "",
          "type": "bool"
        }
      ],
      "stateMutability": "view",
      "type": "function"
    },
    {
      "inputs": [
        {
          "internalType": "address",
          "name": "_tenant",
          "type": "address"
        }
      ],
      "name": "lease",
      "outputs": [],
      "stateMutability": "nonpayable",
      "type": "function"
    },
    {
      "inputs": [],
      "name": "name",
      "outputs": [
        {
          "internalType": "string",
          "name": "",
          "type": "string"
        }
      ],
      "stateMutability": "view",
      "type": "function"
    },
    {
      "inputs": [],
      "name": "nftAddress",
      "outputs": [
        {
          "internalType": "address",
          "name": "",
          "type": "address"
        }
      ],
      "stateMutability": "view",
      "type": "function"
    },
    {
      "inputs": [],
      "name": "owner",
      "outputs": [
        {
          "internalType": "address",
          "name": "",
          "type": "address"
        }
      ],
      "stateMutability": "view",
      "type": "function"
    },
    {
      "inputs": [
        {
          "internalType": "uint256",
          "name": "tokenId",
          "type": "uint256"
        }
      ],
      "name": "ownerOf",
      "outputs": [
        {
          "internalType": "address",
          "name": "",
          "type": "address"
        }
      ],
      "stateMutability": "view",
      "type": "function"
    },
    {
      "inputs": [
        {
          "internalType": "string",
          "name": "_propertyID",
          "type": "string"
        }
      ],
      "name": "requestPropertyData",
      "outputs": [
        {
          "internalType": "bytes32",
          "name": "requestId",
          "type": "bytes32"
        }
      ],
      "stateMutability": "nonpayable",
      "type": "function"
    },
    {
      "inputs": [
        {
          "internalType": "address",
          "name": "from",
          "type": "address"
        },
        {
          "internalType": "address",
          "name": "to",
          "type": "address"
        },
        {
          "internalType": "uint256",
          "name": "tokenId",
          "type": "uint256"
        }
      ],
      "name": "safeTransferFrom",
      "outputs": [],
      "stateMutability": "nonpayable",
      "type": "function"
    },
    {
      "inputs": [
        {
          "internalType": "address",
          "name": "from",
          "type": "address"
        },
        {
          "internalType": "address",
          "name": "to",
          "type": "address"
        },
        {
          "internalType": "uint256",
          "name": "tokenId",
          "type": "uint256"
        },
        {
          "internalType": "bytes",
          "name": "_data",
          "type": "bytes"
        }
      ],
      "name": "safeTransferFrom",
      "outputs": [],
      "stateMutability": "nonpayable",
      "type": "function"
    },
    {
      "inputs": [
        {
          "internalType": "address",
          "name": "operator",
          "type": "address"
        },
        {
          "internalType": "bool",
          "name": "approved",
          "type": "bool"
        }
      ],
      "name": "setApprovalForAll",
      "outputs": [],
      "stateMutability": "nonpayable",
      "type": "function"
    },
    {
      "inputs": [
        {
          "internalType": "uint256",
          "name": "_rent",
          "type": "uint256"
        }
      ],
      "name": "setRentperMonth",
      "outputs": [],
      "stateMutability": "nonpayable",
      "type": "function"
    },
    {
      "inputs": [],
      "name": "streetAddress",
      "outputs": [
        {
          "internalType": "string",
          "name": "",
          "type": "string"
        }
      ],
      "stateMutability": "view",
      "type": "function"
    },
    {
      "inputs": [
        {
          "internalType": "bytes4",
          "name": "interfaceId",
          "type": "bytes4"
        }
      ],
      "name": "supportsInterface",
      "outputs": [
        {
          "internalType": "bool",
          "name": "",
          "type": "bool"
        }
      ],
      "stateMutability": "view",
      "type": "function"
    },
    {
      "inputs": [],
      "name": "symbol",
      "outputs": [
        {
          "internalType": "string",
          "name": "",
          "type": "string"
        }
      ],
      "stateMutability": "view",
      "type": "function"
    },
    {
      "inputs": [],
      "name": "tenant",
      "outputs": [
        {
          "internalType": "address",
          "name": "",
          "type": "address"
        }
      ],
      "stateMutability": "view",
      "type": "function"
    },
    {
      "inputs": [
        {
          "internalType": "uint256",
          "name": "index",
          "type": "uint256"
        }
      ],
      "name": "tokenByIndex",
      "outputs": [
        {
          "internalType": "uint256",
          "name": "",
          "type": "uint256"
        }
      ],
      "stateMutability": "view",
      "type": "function"
    },
    {
      "inputs": [
        {
          "internalType": "address",
          "name": "owner",
          "type": "address"
        },
        {
          "internalType": "uint256",
          "name": "index",
          "type": "uint256"
        }
      ],
      "name": "tokenOfOwnerByIndex",
      "outputs": [
        {
          "internalType": "uint256",
          "name": "",
          "type": "uint256"
        }
      ],
      "stateMutability": "view",
      "type": "function"
    },
    {
      "inputs": [
        {
          "internalType": "uint256",
          "name": "tokenId",
          "type": "uint256"
        }
      ],
      "name": "tokenURI",
      "outputs": [
        {
          "internalType": "string",
          "name": "",
          "type": "string"
        }
      ],
      "stateMutability": "view",
      "type": "function"
    },
    {
      "inputs": [],
      "name": "totalSupply",
      "outputs": [
        {
          "internalType": "uint256",
          "name": "",
          "type": "uint256"
        }
      ],
      "stateMutability": "view",
      "type": "function"
    },
    {
      "inputs": [
        {
          "internalType": "address",
          "name": "from",
          "type": "address"
        },
        {
          "internalType": "address",
          "name": "to",
          "type": "address"
        },
        {
          "internalType": "uint256",
          "name": "tokenId",
          "type": "uint256"
        }
      ],
      "name": "transferFrom",
      "outputs": [],
      "stateMutability": "nonpayable",
      "type": "function"
    },
    {
      "stateMutability": "payable",
      "type": "receive"
    }
  ],
  "bytecode": "0x60a0604052600160045573cd0308d313678777820010d0467430362936f57b600660006101000a81548173ffffffffffffffffffffffffffffffffffffffff021916908373ffffffffffffffffffffffffffffffffffffffff1602179055506002600b60006101000a81548160ff021916908360ff1602179055506000600e553480156200008c57600080fd5b5060405162006338380380620063388339818101604052810190620000b2919062000e12565b6040518060400160405280600881526020017f50726f70657274790000000000000000000000000000000000000000000000008152506040518060400160405280600881526020017f50524f50455254590000000000000000000000000000000000000000000000008152506200012e6200038960201b60201c565b7358bbdbfb6fca3129b91f0dbe372098123b38b5e9600760006101000a81548173ffffffffffffffffffffffffffffffffffffffff021916908373ffffffffffffffffffffffffffffffffffffffff1602179055507f613832343935613866643562346362343932623137646330636333316134666560088190555067016345785d8a000060098190555081600f9080519060200190620001d192919062000b60565b508060109080519060200190620001ea92919062000b60565b505050600660009054906101000a900473ffffffffffffffffffffffffffffffffffffffff1673ffffffffffffffffffffffffffffffffffffffff163373ffffffffffffffffffffffffffffffffffffffff161462000280576040517f08c379a0000000000000000000000000000000000000000000000000000000008152600401620002779062000f9d565b60405180910390fd5b84601890805190602001906200029892919062000b60565b508360199080519060200190620002b192919062000b60565b5082601a9080519060200190620002ca92919062000b60565b5081601b9080519060200190620002e392919062000b60565b50600a5460808181525050600a6000815480929190620003039062000ff8565b919050555080601660006101000a81548173ffffffffffffffffffffffffffffffffffffffff021916908373ffffffffffffffffffffffffffffffffffffffff1602179055506200037e601660009054906101000a900473ffffffffffffffffffffffffffffffffffffffff1660016200042160201b60201c565b5050505050620014e2565b6200041f73c89bd4e1632d3a43cb03aaad5262cbe4038bc57173ffffffffffffffffffffffffffffffffffffffff166338cc48316040518163ffffffff1660e01b8152600401602060405180830381865afa158015620003ed573d6000803e3d6000fd5b505050506040513d601f19601f8201168201806040525081019062000413919062001046565b6200044760201b60201c565b565b620004438282604051806020016040528060008152506200048b60201b60201c565b5050565b80600260006101000a81548173ffffffffffffffffffffffffffffffffffffffff021916908373ffffffffffffffffffffffffffffffffffffffff16021790555050565b6000600e549050600073ffffffffffffffffffffffffffffffffffffffff168473ffffffffffffffffffffffffffffffffffffffff16141562000505576040517f08c379a0000000000000000000000000000000000000000000000000000000008152600401620004fc90620010ee565b60405180910390fd5b62000516816200098160201b60201c565b1562000559576040517f08c379a0000000000000000000000000000000000000000000000000000000008152600401620005509062001160565b60405180910390fd5b600083116200059f576040517f08c379a00000000000000000000000000000000000000000000000000000000081526004016200059690620011f8565b60405180910390fd5b620005b460008583866200098f60201b60201c565b6000601260008673ffffffffffffffffffffffffffffffffffffffff1673ffffffffffffffffffffffffffffffffffffffff1681526020019081526020016000206040518060400160405290816000820160009054906101000a90046fffffffffffffffffffffffffffffffff166fffffffffffffffffffffffffffffffff166fffffffffffffffffffffffffffffffff1681526020016000820160109054906101000a90046fffffffffffffffffffffffffffffffff166fffffffffffffffffffffffffffffffff166fffffffffffffffffffffffffffffffff168152505090506040518060400160405280858360000151620006b3919062001236565b6fffffffffffffffffffffffffffffffff168152602001858360200151620006dc919062001236565b6fffffffffffffffffffffffffffffffff16815250601260008773ffffffffffffffffffffffffffffffffffffffff1673ffffffffffffffffffffffffffffffffffffffff16815260200190815260200160002060008201518160000160006101000a8154816fffffffffffffffffffffffffffffffff02191690836fffffffffffffffffffffffffffffffff16021790555060208201518160000160106101000a8154816fffffffffffffffffffffffffffffffff02191690836fffffffffffffffffffffffffffffffff16021790555090505060405180604001604052808673ffffffffffffffffffffffffffffffffffffffff1681526020014267ffffffffffffffff168152506011600084815260200190815260200160002060008201518160000160006101000a81548173ffffffffffffffffffffffffffffffffffffffff021916908373ffffffffffffffffffffffffffffffffffffffff16021790555060208201518160000160146101000a81548167ffffffffffffffff021916908367ffffffffffffffff160217905550905050600082905060005b858110156200095c57818773ffffffffffffffffffffffffffffffffffffffff16600073ffffffffffffffffffffffffffffffffffffffff167fddf252ad1be2c89b69c2b068fc378daa952ba7f163c4a11628f55a4df523b3ef60405160405180910390a4620008f460008884886200099560201b60201c565b62000936576040517f08c379a00000000000000000000000000000000000000000000000000000000081526004016200092d90620012f9565b60405180910390fd5b8180620009439062000ff8565b9250508080620009539062000ff8565b9150506200087a565b5080600e8190555062000979600087858862000b3f60201b60201c565b505050505050565b6000600e5482109050919050565b50505050565b6000620009c38473ffffffffffffffffffffffffffffffffffffffff1662000b4560201b62001ffa1760201c565b1562000b32578373ffffffffffffffffffffffffffffffffffffffff1663150b7a02620009f562000b5860201b60201c565b8786866040518563ffffffff1660e01b815260040162000a1994939291906200139a565b6020604051808303816000875af192505050801562000a5857506040513d601f19601f8201168201806040525081019062000a5591906200144b565b60015b62000ae1573d806000811462000a8b576040519150601f19603f3d011682016040523d82523d6000602084013e62000a90565b606091505b5060008151141562000ad9576040517f08c379a000000000000000000000000000000000000000000000000000000000815260040162000ad090620012f9565b60405180910390fd5b805181602001fd5b63150b7a0260e01b7bffffffffffffffffffffffffffffffffffffffffffffffffffffffff1916817bffffffffffffffffffffffffffffffffffffffffffffffffffffffff19161491505062000b37565b600190505b949350505050565b50505050565b600080823b905060008111915050919050565b600033905090565b82805462000b6e90620014ac565b90600052602060002090601f01602090048101928262000b92576000855562000bde565b82601f1062000bad57805160ff191683800117855562000bde565b8280016001018555821562000bde579182015b8281111562000bdd57825182559160200191906001019062000bc0565b5b50905062000bed919062000bf1565b5090565b5b8082111562000c0c57600081600090555060010162000bf2565b5090565b6000604051905090565b600080fd5b600080fd5b600080fd5b600080fd5b6000601f19601f8301169050919050565b7f4e487b7100000000000000000000000000000000000000000000000000000000600052604160045260246000fd5b62000c798262000c2e565b810181811067ffffffffffffffff8211171562000c9b5762000c9a62000c3f565b5b80604052505050565b600062000cb062000c10565b905062000cbe828262000c6e565b919050565b600067ffffffffffffffff82111562000ce15762000ce062000c3f565b5b62000cec8262000c2e565b9050602081019050919050565b60005b8381101562000d1957808201518184015260208101905062000cfc565b8381111562000d29576000848401525b50505050565b600062000d4662000d408462000cc3565b62000ca4565b90508281526020810184848401111562000d655762000d6462000c29565b5b62000d7284828562000cf9565b509392505050565b600082601f83011262000d925762000d9162000c24565b5b815162000da484826020860162000d2f565b91505092915050565b600073ffffffffffffffffffffffffffffffffffffffff82169050919050565b600062000dda8262000dad565b9050919050565b62000dec8162000dcd565b811462000df857600080fd5b50565b60008151905062000e0c8162000de1565b92915050565b600080600080600060a0868803121562000e315762000e3062000c1a565b5b600086015167ffffffffffffffff81111562000e525762000e5162000c1f565b5b62000e608882890162000d7a565b955050602086015167ffffffffffffffff81111562000e845762000e8362000c1f565b5b62000e928882890162000d7a565b945050604086015167ffffffffffffffff81111562000eb65762000eb562000c1f565b5b62000ec48882890162000d7a565b935050606086015167ffffffffffffffff81111562000ee85762000ee762000c1f565b5b62000ef68882890162000d7a565b925050608062000f098882890162000dfb565b9150509295509295909350565b600082825260208201905092915050565b7f4f6e6c7920486f646566792063616e206d696e742050726f7065727479204e4660008201527f54732e0000000000000000000000000000000000000000000000000000000000602082015250565b600062000f8560238362000f16565b915062000f928262000f27565b604082019050919050565b6000602082019050818103600083015262000fb88162000f76565b9050919050565b7f4e487b7100000000000000000000000000000000000000000000000000000000600052601160045260246000fd5b6000819050919050565b6000620010058262000fee565b91507fffffffffffffffffffffffffffffffffffffffffffffffffffffffffffffffff8214156200103b576200103a62000fbf565b5b600182019050919050565b6000602082840312156200105f576200105e62000c1a565b5b60006200106f8482850162000dfb565b91505092915050565b7f455243373231413a206d696e7420746f20746865207a65726f2061646472657360008201527f7300000000000000000000000000000000000000000000000000000000000000602082015250565b6000620010d660218362000f16565b9150620010e38262001078565b604082019050919050565b600060208201905081810360008301526200110981620010c7565b9050919050565b7f455243373231413a20746f6b656e20616c7265616479206d696e746564000000600082015250565b600062001148601d8362000f16565b9150620011558262001110565b602082019050919050565b600060208201905081810360008301526200117b8162001139565b9050919050565b7f455243373231413a207175616e74697479206d7573742062652067726561746560008201527f7220300000000000000000000000000000000000000000000000000000000000602082015250565b6000620011e060238362000f16565b9150620011ed8262001182565b604082019050919050565b600060208201905081810360008301526200121381620011d1565b9050919050565b60006fffffffffffffffffffffffffffffffff82169050919050565b600062001243826200121a565b915062001250836200121a565b9250826fffffffffffffffffffffffffffffffff0382111562001278576200127762000fbf565b5b828201905092915050565b7f455243373231413a207472616e7366657220746f206e6f6e204552433732315260008201527f6563656976657220696d706c656d656e74657200000000000000000000000000602082015250565b6000620012e160338362000f16565b9150620012ee8262001283565b604082019050919050565b600060208201905081810360008301526200131481620012d2565b9050919050565b620013268162000dcd565b82525050565b620013378162000fee565b82525050565b600081519050919050565b600082825260208201905092915050565b600062001366826200133d565b62001372818562001348565b93506200138481856020860162000cf9565b6200138f8162000c2e565b840191505092915050565b6000608082019050620013b160008301876200131b565b620013c060208301866200131b565b620013cf60408301856200132c565b8181036060830152620013e3818462001359565b905095945050505050565b60007fffffffff0000000000000000000000000000000000000000000000000000000082169050919050565b6200142581620013ee565b81146200143157600080fd5b50565b60008151905062001445816200141a565b92915050565b60006020828403121562001464576200146362000c1a565b5b6000620014748482850162001434565b91505092915050565b7f4e487b7100000000000000000000000000000000000000000000000000000000600052602260045260246000fd5b60006002820490506001821680620014c557607f821691505b60208210811415620014dc57620014db6200147d565b5b50919050565b608051614e2c6200150c60003960008181610c91015281816114780152611dd60152614e2c6000f3fe6080604052600436106101dc5760003560e01c80636352211e11610102578063b88d4fde11610095578063d8b0b49911610064578063d8b0b4991461072d578063e985e9c514610758578063fcc8f79314610795578063fd0160fe146107d25761021c565b8063b88d4fde14610673578063c87b56dd1461069c578063cfd5516b146106d9578063d2d744a9146107045761021c565b806394d9d629116100d157806394d9d629146105cb57806395d89b41146105f4578063a22cb4651461061f578063adf07791146106485761021c565b80636352211e146104e957806370a08231146105265780638da5cb5b146105635780639201de551461058e5761021c565b806323b872dd1161017a57806347d905761161014957806347d905761461042d5780634b4a37fc146104585780634f6ccce7146104815780635bf8633a146104be5761021c565b806323b872dd146103615780632f745c591461038a5780633347ae0a146103c757806342842e0e146104045761021c565b8063095ea7b3116101b6578063095ea7b3146102c657806318160ddd146102ef5780631998aeef1461031a57806319fde1f6146103245761021c565b806301ffc9a71461022157806306fdde031461025e578063081812fc146102895761021c565b3661021c576040517f08c379a0000000000000000000000000000000000000000000000000000000008152600401610213906134b8565b60405180910390fd5b600080fd5b34801561022d57600080fd5b5061024860048036038101906102439190613544565b6107fd565b604051610255919061358c565b60405180910390f35b34801561026a57600080fd5b50610273610947565b604051610280919061362f565b60405180910390f35b34801561029557600080fd5b506102b060048036038101906102ab9190613687565b6109d9565b6040516102bd91906136f5565b60405180910390f35b3480156102d257600080fd5b506102ed60048036038101906102e8919061373c565b610a5e565b005b3480156102fb57600080fd5b50610304610b77565b604051610311919061378b565b60405180910390f35b610322610b81565b005b34801561033057600080fd5b5061034b600480360381019061034691906137a6565b610ce1565b604051610358919061358c565b60405180910390f35b34801561036d57600080fd5b50610388600480360381019061038391906137d3565b610d2c565b005b34801561039657600080fd5b506103b160048036038101906103ac919061373c565b610d3c565b6040516103be919061378b565b60405180910390f35b3480156103d357600080fd5b506103ee60048036038101906103e9919061395b565b610f3a565b6040516103fb91906139bd565b60405180910390f35b34801561041057600080fd5b5061042b600480360381019061042691906137d3565b6112c9565b005b34801561043957600080fd5b506104426112e9565b60405161044f919061362f565b60405180910390f35b34801561046457600080fd5b5061047f600480360381019061047a91906137a6565b611377565b005b34801561048d57600080fd5b506104a860048036038101906104a39190613687565b6114d4565b6040516104b5919061378b565b60405180910390f35b3480156104ca57600080fd5b506104d3611527565b6040516104e091906136f5565b60405180910390f35b3480156104f557600080fd5b50610510600480360381019061050b9190613687565b61154d565b60405161051d91906136f5565b60405180910390f35b34801561053257600080fd5b5061054d600480360381019061054891906137a6565b611563565b60405161055a919061378b565b60405180910390f35b34801561056f57600080fd5b5061057861164c565b60405161058591906136f5565b60405180910390f35b34801561059a57600080fd5b506105b560048036038101906105b09190613a04565b611672565b6040516105c2919061362f565b60405180910390f35b3480156105d757600080fd5b506105f260048036038101906105ed9190613a31565b61180d565b005b34801561060057600080fd5b5061060961195c565b604051610616919061362f565b60405180910390f35b34801561062b57600080fd5b5061064660048036038101906106419190613aea565b6119ee565b005b34801561065457600080fd5b5061065d611b6f565b60405161066a91906136f5565b60405180910390f35b34801561067f57600080fd5b5061069a60048036038101906106959190613bcb565b611b95565b005b3480156106a857600080fd5b506106c360048036038101906106be9190613687565b611bf1565b6040516106d0919061362f565b60405180910390f35b3480156106e557600080fd5b506106ee611c98565b6040516106fb919061362f565b60405180910390f35b34801561071057600080fd5b5061072b60048036038101906107269190613687565b611d26565b005b34801561073957600080fd5b50610742611e32565b60405161074f919061362f565b60405180910390f35b34801561076457600080fd5b5061077f600480360381019061077a9190613c4e565b611ec0565b60405161078c919061358c565b60405180910390f35b3480156107a157600080fd5b506107bc60048036038101906107b791906137a6565b611f54565b6040516107c9919061378b565b60405180910390f35b3480156107de57600080fd5b506107e7611f6c565b6040516107f4919061362f565b60405180910390f35b60007f80ac58cd000000000000000000000000000000000000000000000000000000007bffffffffffffffffffffffffffffffffffffffffffffffffffffffff1916827bffffffffffffffffffffffffffffffffffffffffffffffffffffffff191614806108c857507f5b5e139f000000000000000000000000000000000000000000000000000000007bffffffffffffffffffffffffffffffffffffffffffffffffffffffff1916827bffffffffffffffffffffffffffffffffffffffffffffffffffffffff1916145b8061093057507f780e9d63000000000000000000000000000000000000000000000000000000007bffffffffffffffffffffffffffffffffffffffffffffffffffffffff1916827bffffffffffffffffffffffffffffffffffffffffffffffffffffffff1916145b80610940575061093f8261200d565b5b9050919050565b6060600f805461095690613cbd565b80601f016020809104026020016040519081016040528092919081815260200182805461098290613cbd565b80156109cf5780601f106109a4576101008083540402835291602001916109cf565b820191906000526020600020905b8154815290600101906020018083116109b257829003601f168201915b5050505050905090565b60006109e482612077565b610a23576040517f08c379a0000000000000000000000000000000000000000000000000000000008152600401610a1a90613d61565b60405180910390fd5b6013600083815260200190815260200160002060009054906101000a900473ffffffffffffffffffffffffffffffffffffffff169050919050565b6000610a698261154d565b90508073ffffffffffffffffffffffffffffffffffffffff168373ffffffffffffffffffffffffffffffffffffffff161415610ada576040517f08c379a0000000000000000000000000000000000000000000000000000000008152600401610ad190613df3565b60405180910390fd5b8073ffffffffffffffffffffffffffffffffffffffff16610af9612085565b73ffffffffffffffffffffffffffffffffffffffff161480610b285750610b2781610b22612085565b611ec0565b5b610b67576040517f08c379a0000000000000000000000000000000000000000000000000000000008152600401610b5e90613e85565b60405180910390fd5b610b7283838361208d565b505050565b6000600e54905090565b308073ffffffffffffffffffffffffffffffffffffffff16638da5cb5b6040518163ffffffff1660e01b8152600401602060405180830381865afa158015610bcd573d6000803e3d6000fd5b505050506040513d601f19601f82011682018060405250810190610bf19190613eba565b73ffffffffffffffffffffffffffffffffffffffff163373ffffffffffffffffffffffffffffffffffffffff161415610c2957600080fd5b6000339050600034905034601d60008473ffffffffffffffffffffffffffffffffffffffff1673ffffffffffffffffffffffffffffffffffffffff16815260200190815260200160002081905550808273ffffffffffffffffffffffffffffffffffffffff167f00000000000000000000000000000000000000000000000000000000000000007fa6fbc5ac2f3da3455d4add21d1ccda7e94962774d79e098e04a6a6b2cf1dc24260405160405180910390a4505050565b600080601d60008473ffffffffffffffffffffffffffffffffffffffff1673ffffffffffffffffffffffffffffffffffffffff16815260200190815260200160002054119050919050565b610d3783838361213f565b505050565b6000610d4783611563565b8210610d88576040517f08c379a0000000000000000000000000000000000000000000000000000000008152600401610d7f90613f59565b60405180910390fd5b6000610d92610b77565b905060008060005b83811015610ef8576000601160008381526020019081526020016000206040518060400160405290816000820160009054906101000a900473ffffffffffffffffffffffffffffffffffffffff1673ffffffffffffffffffffffffffffffffffffffff1673ffffffffffffffffffffffffffffffffffffffff1681526020016000820160149054906101000a900467ffffffffffffffff1667ffffffffffffffff1667ffffffffffffffff16815250509050600073ffffffffffffffffffffffffffffffffffffffff16816000015173ffffffffffffffffffffffffffffffffffffffff1614610e8c57806000015192505b8773ffffffffffffffffffffffffffffffffffffffff168373ffffffffffffffffffffffffffffffffffffffff161415610ee45786841415610ed5578195505050505050610f34565b8380610ee090613fa8565b9450505b508080610ef090613fa8565b915050610d9a565b506040517f08c379a0000000000000000000000000000000000000000000000000000000008152600401610f2b90614063565b60405180910390fd5b92915050565b6000600660009054906101000a900473ffffffffffffffffffffffffffffffffffffffff1673ffffffffffffffffffffffffffffffffffffffff163373ffffffffffffffffffffffffffffffffffffffff1614610f9657600080fd5b6000610fac600854306394d9d62960e01b6126e6565b90506110176040518060400160405280600381526020017f676574000000000000000000000000000000000000000000000000000000000081525084604051602001610ff89190614131565b604051602081830303815290604052836127179092919063ffffffff16565b6110966040518060400160405280600481526020017f70617468000000000000000000000000000000000000000000000000000000008152506040518060400160405280601681526020017f312e70726f6a6563742e6f776e65724164647265737300000000000000000000815250836127179092919063ffffffff16565b6111156040518060400160405280600481526020017f70617468000000000000000000000000000000000000000000000000000000008152506040518060400160405280601781526020017f312e70726f6a6563742e73747265657441646472657373000000000000000000815250836127179092919063ffffffff16565b6111946040518060400160405280600481526020017f70617468000000000000000000000000000000000000000000000000000000008152506040518060400160405280600e81526020017f312e70726f6a6563742e63697479000000000000000000000000000000000000815250836127179092919063ffffffff16565b6112136040518060400160405280600481526020017f70617468000000000000000000000000000000000000000000000000000000008152506040518060400160405280601181526020017f312e70726f6a6563742e636f756e747279000000000000000000000000000000815250836127179092919063ffffffff16565b6112926040518060400160405280600481526020017f70617468000000000000000000000000000000000000000000000000000000008152506040518060400160405280600e81526020017f312e70726f6a6563742e6c696e6b000000000000000000000000000000000000815250836127179092919063ffffffff16565b6112c1600760009054906101000a900473ffffffffffffffffffffffffffffffffffffffff168260095461274a565b915050919050565b6112e483838360405180602001604052806000815250611b95565b505050565b601880546112f690613cbd565b80601f016020809104026020016040519081016040528092919081815260200182805461132290613cbd565b801561136f5780601f106113445761010080835404028352916020019161136f565b820191906000526020600020905b81548152906001019060200180831161135257829003601f168201915b505050505081565b308073ffffffffffffffffffffffffffffffffffffffff16638da5cb5b6040518163ffffffff1660e01b8152600401602060405180830381865afa1580156113c3573d6000803e3d6000fd5b505050506040513d601f19601f820116820180604052508101906113e79190613eba565b73ffffffffffffffffffffffffffffffffffffffff163373ffffffffffffffffffffffffffffffffffffffff161461141e57600080fd5b81601760006101000a81548173ffffffffffffffffffffffffffffffffffffffff021916908373ffffffffffffffffffffffffffffffffffffffff1602179055508173ffffffffffffffffffffffffffffffffffffffff167f00000000000000000000000000000000000000000000000000000000000000007fbe42c4d841d0b5346cf2ff45653139f85890a79b72066505e8797077b4752289601c546040516114c8919061378b565b60405180910390a35050565b60006114de610b77565b821061151f576040517f08c379a0000000000000000000000000000000000000000000000000000000008152600401611516906141c5565b60405180910390fd5b819050919050565b601560009054906101000a900473ffffffffffffffffffffffffffffffffffffffff1681565b600061155882612816565b600001519050919050565b60008073ffffffffffffffffffffffffffffffffffffffff168273ffffffffffffffffffffffffffffffffffffffff1614156115d4576040517f08c379a00000000000000000000000000000000000000000000000000000000081526004016115cb90614257565b60405180910390fd5b601260008373ffffffffffffffffffffffffffffffffffffffff1673ffffffffffffffffffffffffffffffffffffffff16815260200190815260200160002060000160009054906101000a90046fffffffffffffffffffffffffffffffff166fffffffffffffffffffffffffffffffff169050919050565b601660009054906101000a900473ffffffffffffffffffffffffffffffffffffffff1681565b606060005b60208160ff161080156116c95750600060f81b838260ff16602081106116a05761169f614277565b5b1a60f81b7effffffffffffffffffffffffffffffffffffffffffffffffffffffffffffff191614155b156116e15780806116d9906142b3565b915050611677565b60008160ff1667ffffffffffffffff811115611700576116ff613830565b5b6040519080825280601f01601f1916602001820160405280156117325781602001600182028036833780820191505090505b509050600091505b60208260ff1610801561178c5750600060f81b848360ff166020811061176357611762614277565b5b1a60f81b7effffffffffffffffffffffffffffffffffffffffffffffffffffffffffffff191614155b1561180357838260ff16602081106117a7576117a6614277565b5b1a60f81b818360ff16815181106117c1576117c0614277565b5b60200101907effffffffffffffffffffffffffffffffffffffffffffffffffffffffffffff1916908160001a90535081806117fb906142b3565b92505061173a565b8092505050919050565b856005600082815260200190815260200160002060009054906101000a900473ffffffffffffffffffffffffffffffffffffffff1673ffffffffffffffffffffffffffffffffffffffff163373ffffffffffffffffffffffffffffffffffffffff16146118af576040517f08c379a00000000000000000000000000000000000000000000000000000000081526004016118a69061434f565b60405180910390fd5b6005600082815260200190815260200160002060006101000a81549073ffffffffffffffffffffffffffffffffffffffff0219169055807f7cc135e0cebb02c3480ae5d74d377283180a2601f8f644edf7987b009316c63a60405160405180910390a260008660601c9050600061192587611672565b9050600061193287611672565b9050600061193f87611672565b9050600061194c87611672565b9050505050505050505050505050565b60606010805461196b90613cbd565b80601f016020809104026020016040519081016040528092919081815260200182805461199790613cbd565b80156119e45780601f106119b9576101008083540402835291602001916119e4565b820191906000526020600020905b8154815290600101906020018083116119c757829003601f168201915b5050505050905090565b6119f6612085565b73ffffffffffffffffffffffffffffffffffffffff168273ffffffffffffffffffffffffffffffffffffffff161415611a64576040517f08c379a0000000000000000000000000000000000000000000000000000000008152600401611a5b906143bb565b60405180910390fd5b8060146000611a71612085565b73ffffffffffffffffffffffffffffffffffffffff1673ffffffffffffffffffffffffffffffffffffffff16815260200190815260200160002060008473ffffffffffffffffffffffffffffffffffffffff1673ffffffffffffffffffffffffffffffffffffffff16815260200190815260200160002060006101000a81548160ff0219169083151502179055508173ffffffffffffffffffffffffffffffffffffffff16611b1e612085565b73ffffffffffffffffffffffffffffffffffffffff167f17307eab39ab6107e8899845ad3d59bd9653f200f220920489ca2b5937696c3183604051611b63919061358c565b60405180910390a35050565b601760009054906101000a900473ffffffffffffffffffffffffffffffffffffffff1681565b611ba084848461213f565b611bac84848484612971565b611beb576040517f08c379a0000000000000000000000000000000000000000000000000000000008152600401611be29061444d565b60405180910390fd5b50505050565b6060611bfc82612077565b611c3b576040517f08c379a0000000000000000000000000000000000000000000000000000000008152600401611c32906144df565b60405180910390fd5b6000611c45612af9565b90506000815111611c655760405180602001604052806000815250611c90565b80611c6f84612b10565b604051602001611c809291906144ff565b6040516020818303038152906040525b915050919050565b601b8054611ca590613cbd565b80601f0160208091040260200160405190810160405280929190818152602001828054611cd190613cbd565b8015611d1e5780601f10611cf357610100808354040283529160200191611d1e565b820191906000526020600020905b815481529060010190602001808311611d0157829003601f168201915b505050505081565b308073ffffffffffffffffffffffffffffffffffffffff16638da5cb5b6040518163ffffffff1660e01b8152600401602060405180830381865afa158015611d72573d6000803e3d6000fd5b505050506040513d601f19601f82011682018060405250810190611d969190613eba565b73ffffffffffffffffffffffffffffffffffffffff163373ffffffffffffffffffffffffffffffffffffffff1614611dcd57600080fd5b81601c819055507f00000000000000000000000000000000000000000000000000000000000000007f89a6230abe3080cb1eca7644bf488fb3b97fa996cc63c48e752739fc24ba0768601c54604051611e26919061378b565b60405180910390a25050565b601a8054611e3f90613cbd565b80601f0160208091040260200160405190810160405280929190818152602001828054611e6b90613cbd565b8015611eb85780601f10611e8d57610100808354040283529160200191611eb8565b820191906000526020600020905b815481529060010190602001808311611e9b57829003601f168201915b505050505081565b6000601460008473ffffffffffffffffffffffffffffffffffffffff1673ffffffffffffffffffffffffffffffffffffffff16815260200190815260200160002060008373ffffffffffffffffffffffffffffffffffffffff1673ffffffffffffffffffffffffffffffffffffffff16815260200190815260200160002060009054906101000a900460ff16905092915050565b601d6020528060005260406000206000915090505481565b60198054611f7990613cbd565b80601f0160208091040260200160405190810160405280929190818152602001828054611fa590613cbd565b8015611ff25780601f10611fc757610100808354040283529160200191611ff2565b820191906000526020600020905b815481529060010190602001808311611fd557829003601f168201915b505050505081565b600080823b905060008111915050919050565b60007f01ffc9a7000000000000000000000000000000000000000000000000000000007bffffffffffffffffffffffffffffffffffffffffffffffffffffffff1916827bffffffffffffffffffffffffffffffffffffffffffffffffffffffff1916149050919050565b6000600e5482109050919050565b600033905090565b826013600084815260200190815260200160002060006101000a81548173ffffffffffffffffffffffffffffffffffffffff021916908373ffffffffffffffffffffffffffffffffffffffff160217905550818373ffffffffffffffffffffffffffffffffffffffff168273ffffffffffffffffffffffffffffffffffffffff167f8c5be1e5ebec7d5bd14f71427d1e84f3dd0314c0f7b2291e5b200ac8c7c3b92560405160405180910390a4505050565b600061214a82612816565b90506000816000015173ffffffffffffffffffffffffffffffffffffffff16612171612085565b73ffffffffffffffffffffffffffffffffffffffff1614806121cd5750612196612085565b73ffffffffffffffffffffffffffffffffffffffff166121b5846109d9565b73ffffffffffffffffffffffffffffffffffffffff16145b806121e957506121e882600001516121e3612085565b611ec0565b5b90508061222b576040517f08c379a000000000000000000000000000000000000000000000000000000000815260040161222290614595565b60405180910390fd5b8473ffffffffffffffffffffffffffffffffffffffff16826000015173ffffffffffffffffffffffffffffffffffffffff161461229d576040517f08c379a000000000000000000000000000000000000000000000000000000000815260040161229490614627565b60405180910390fd5b600073ffffffffffffffffffffffffffffffffffffffff168473ffffffffffffffffffffffffffffffffffffffff16141561230d576040517f08c379a0000000000000000000000000000000000000000000000000000000008152600401612304906146b9565b60405180910390fd5b61231a8585856001612c71565b61232a600084846000015161208d565b6001601260008773ffffffffffffffffffffffffffffffffffffffff1673ffffffffffffffffffffffffffffffffffffffff16815260200190815260200160002060000160008282829054906101000a90046fffffffffffffffffffffffffffffffff160392506101000a8154816fffffffffffffffffffffffffffffffff02191690836fffffffffffffffffffffffffffffffff1602179055506001601260008673ffffffffffffffffffffffffffffffffffffffff1673ffffffffffffffffffffffffffffffffffffffff16815260200190815260200160002060000160008282829054906101000a90046fffffffffffffffffffffffffffffffff160192506101000a8154816fffffffffffffffffffffffffffffffff02191690836fffffffffffffffffffffffffffffffff16021790555060405180604001604052808573ffffffffffffffffffffffffffffffffffffffff1681526020014267ffffffffffffffff168152506011600085815260200190815260200160002060008201518160000160006101000a81548173ffffffffffffffffffffffffffffffffffffffff021916908373ffffffffffffffffffffffffffffffffffffffff16021790555060208201518160000160146101000a81548167ffffffffffffffff021916908367ffffffffffffffff160217905550905050600060018461253091906146d9565b9050600073ffffffffffffffffffffffffffffffffffffffff166011600083815260200190815260200160002060000160009054906101000a900473ffffffffffffffffffffffffffffffffffffffff1673ffffffffffffffffffffffffffffffffffffffff161415612676576125a681612077565b15612675576040518060400160405280846000015173ffffffffffffffffffffffffffffffffffffffff168152602001846020015167ffffffffffffffff168152506011600083815260200190815260200160002060008201518160000160006101000a81548173ffffffffffffffffffffffffffffffffffffffff021916908373ffffffffffffffffffffffffffffffffffffffff16021790555060208201518160000160146101000a81548167ffffffffffffffff021916908367ffffffffffffffff1602179055509050505b5b838573ffffffffffffffffffffffffffffffffffffffff168773ffffffffffffffffffffffffffffffffffffffff167fddf252ad1be2c89b69c2b068fc378daa952ba7f163c4a11628f55a4df523b3ef60405160405180910390a46126de8686866001612c77565b505050505050565b6126ee61334e565b6126f661334e565b61270d85858584612c7d909392919063ffffffff16565b9150509392505050565b61272e828460800151612d2d90919063ffffffff16565b612745818460800151612d2d90919063ffffffff16565b505050565b600080600454905060018161275f91906146d9565b6004819055506000634042994660e01b60008087600001513089604001518760018c60800151600001516040516024016127a0989796959493929190614793565b604051602081830303815290604052907bffffffffffffffffffffffffffffffffffffffffffffffffffffffff19166020820180517bffffffffffffffffffffffffffffffffffffffffffffffffffffffff8381831617835250505050905061280b86838684612d52565b925050509392505050565b61281e6133bb565b61282782612077565b612866576040517f08c379a000000000000000000000000000000000000000000000000000000000815260040161285d9061488a565b60405180910390fd5b60008290505b6000601160008381526020019081526020016000206040518060400160405290816000820160009054906101000a900473ffffffffffffffffffffffffffffffffffffffff1673ffffffffffffffffffffffffffffffffffffffff1673ffffffffffffffffffffffffffffffffffffffff1681526020016000820160149054906101000a900467ffffffffffffffff1667ffffffffffffffff1667ffffffffffffffff16815250509050600073ffffffffffffffffffffffffffffffffffffffff16816000015173ffffffffffffffffffffffffffffffffffffffff161461295857809250505061296c565b508080612964906148aa565b91505061286c565b919050565b60006129928473ffffffffffffffffffffffffffffffffffffffff16611ffa565b15612aec578373ffffffffffffffffffffffffffffffffffffffff1663150b7a026129bb612085565b8786866040518563ffffffff1660e01b81526004016129dd94939291906148d4565b6020604051808303816000875af1925050508015612a1957506040513d601f19601f82011682018060405250810190612a169190614935565b60015b612a9c573d8060008114612a49576040519150601f19603f3d011682016040523d82523d6000602084013e612a4e565b606091505b50600081511415612a94576040517f08c379a0000000000000000000000000000000000000000000000000000000008152600401612a8b9061444d565b60405180910390fd5b805181602001fd5b63150b7a0260e01b7bffffffffffffffffffffffffffffffffffffffffffffffffffffffff1916817bffffffffffffffffffffffffffffffffffffffffffffffffffffffff191614915050612af1565b600190505b949350505050565b606060405180602001604052806000815250905090565b60606000821415612b58576040518060400160405280600181526020017f30000000000000000000000000000000000000000000000000000000000000008152509050612c6c565b600082905060005b60008214612b8a578080612b7390613fa8565b915050600a82612b839190614991565b9150612b60565b60008167ffffffffffffffff811115612ba657612ba5613830565b5b6040519080825280601f01601f191660200182016040528015612bd85781602001600182028036833780820191505090505b5090505b60008514612c6557600182612bf191906149c2565b9150600a85612c0091906149f6565b6030612c0c91906146d9565b60f81b818381518110612c2257612c21614277565b5b60200101907effffffffffffffffffffffffffffffffffffffffffffffffffffffffffffff1916908160001a905350600a85612c5e9190614991565b9450612bdc565b8093505050505b919050565b50505050565b50505050565b612c8561334e565b612c958560800151610100612ee7565b508385600001818152505082856020019073ffffffffffffffffffffffffffffffffffffffff16908173ffffffffffffffffffffffffffffffffffffffff16815250508185604001907bffffffffffffffffffffffffffffffffffffffffffffffffffffffff191690817bffffffffffffffffffffffffffffffffffffffffffffffffffffffff191681525050849050949350505050565b612d3a8260038351612f51565b612d4d81836130d690919063ffffffff16565b505050565b60003084604051602001612d67929190614ae0565b604051602081830303815290604052805190602001209050846005600083815260200190815260200160002060006101000a81548173ffffffffffffffffffffffffffffffffffffffff021916908373ffffffffffffffffffffffffffffffffffffffff160217905550807fb5e6e01e79f91267dc17b4e6314d5d4d03593d2ceee0fbb452b750bd70ea5af960405160405180910390a2600260009054906101000a900473ffffffffffffffffffffffffffffffffffffffff1673ffffffffffffffffffffffffffffffffffffffff16634000aea08685856040518463ffffffff1660e01b8152600401612e5d93929190614b0c565b6020604051808303816000875af1158015612e7c573d6000803e3d6000fd5b505050506040513d601f19601f82011682018060405250810190612ea09190614b5f565b612edf576040517f08c379a0000000000000000000000000000000000000000000000000000000008152600401612ed690614bfe565b60405180910390fd5b949350505050565b612eef6133f5565b6000602083612efe91906149f6565b14612f2a57602082612f1091906149f6565b6020612f1c91906149c2565b82612f2791906146d9565b91505b81836020018181525050604051808452600081528281016020016040525082905092915050565b60178167ffffffffffffffff1611612f8857612f828160058460ff16901b60ff1617846130f890919063ffffffff16565b506130d1565b60ff8167ffffffffffffffff1611612fde57612fb7601860058460ff16901b17846130f890919063ffffffff16565b50612fd88167ffffffffffffffff166001856131189092919063ffffffff16565b506130d0565b61ffff8167ffffffffffffffff16116130355761300e601960058460ff16901b17846130f890919063ffffffff16565b5061302f8167ffffffffffffffff166002856131189092919063ffffffff16565b506130cf565b63ffffffff8167ffffffffffffffff161161308e57613067601a60058460ff16901b17846130f890919063ffffffff16565b506130888167ffffffffffffffff166004856131189092919063ffffffff16565b506130ce565b6130ab601b60058460ff16901b17846130f890919063ffffffff16565b506130cc8167ffffffffffffffff166008856131189092919063ffffffff16565b505b5b5b5b505050565b6130de6133f5565b6130f08384600001515184855161313a565b905092915050565b6131006133f5565b6131108384600001515184613229565b905092915050565b6131206133f5565b613131848560000151518585613280565b90509392505050565b6131426133f5565b825182111561315057600080fd5b8460200151828561316191906146d9565b1115613196576131958560026131868860200151888761318191906146d9565b61330e565b6131909190614c1e565b61332a565b5b6000808651805187602083010193508088870111156131b55787860182525b60208701925050505b602084106131fc57805182526020826131d791906146d9565b91506020816131e691906146d9565b90506020846131f591906149c2565b93506131be565b60006001856020036101000a03905080198251168184511681811785525050508692505050949350505050565b6132316133f5565b836020015183106132575761325684600286602001516132519190614c1e565b61332a565b5b8351805160208583010184815381861415613273576001820183525b5050508390509392505050565b6132886133f5565b8460200151848361329991906146d9565b11156132c1576132c085600286856132b191906146d9565b6132bb9190614c1e565b61332a565b5b60006001836101006132d39190614dab565b6132dd91906149c2565b905085518386820101858319825116178152815185880111156133005784870182525b505085915050949350505050565b60008183111561332057829050613324565b8190505b92915050565b60008260000151905061333d8383612ee7565b5061334883826130d6565b50505050565b6040518060a0016040528060008019168152602001600073ffffffffffffffffffffffffffffffffffffffff16815260200160007bffffffffffffffffffffffffffffffffffffffffffffffffffffffff19168152602001600081526020016133b56133f5565b81525090565b6040518060400160405280600073ffffffffffffffffffffffffffffffffffffffff168152602001600067ffffffffffffffff1681525090565b604051806040016040528060608152602001600081525090565b600082825260208201905092915050565b7f506c6561736520646f206e6f742073656e642066756e6473206469726563746c60008201527f7920746f20746869732070726f706572747920736d61727420636f6e7472616360208201527f7420616464726573732e00000000000000000000000000000000000000000000604082015250565b60006134a2604a8361340f565b91506134ad82613420565b606082019050919050565b600060208201905081810360008301526134d181613495565b9050919050565b6000604051905090565b600080fd5b600080fd5b60007fffffffff0000000000000000000000000000000000000000000000000000000082169050919050565b613521816134ec565b811461352c57600080fd5b50565b60008135905061353e81613518565b92915050565b60006020828403121561355a576135596134e2565b5b60006135688482850161352f565b91505092915050565b60008115159050919050565b61358681613571565b82525050565b60006020820190506135a1600083018461357d565b92915050565b600081519050919050565b60005b838110156135d05780820151818401526020810190506135b5565b838111156135df576000848401525b50505050565b6000601f19601f8301169050919050565b6000613601826135a7565b61360b818561340f565b935061361b8185602086016135b2565b613624816135e5565b840191505092915050565b6000602082019050818103600083015261364981846135f6565b905092915050565b6000819050919050565b61366481613651565b811461366f57600080fd5b50565b6000813590506136818161365b565b92915050565b60006020828403121561369d5761369c6134e2565b5b60006136ab84828501613672565b91505092915050565b600073ffffffffffffffffffffffffffffffffffffffff82169050919050565b60006136df826136b4565b9050919050565b6136ef816136d4565b82525050565b600060208201905061370a60008301846136e6565b92915050565b613719816136d4565b811461372457600080fd5b50565b60008135905061373681613710565b92915050565b60008060408385031215613753576137526134e2565b5b600061376185828601613727565b925050602061377285828601613672565b9150509250929050565b61378581613651565b82525050565b60006020820190506137a0600083018461377c565b92915050565b6000602082840312156137bc576137bb6134e2565b5b60006137ca84828501613727565b91505092915050565b6000806000606084860312156137ec576137eb6134e2565b5b60006137fa86828701613727565b935050602061380b86828701613727565b925050604061381c86828701613672565b9150509250925092565b600080fd5b600080fd5b7f4e487b7100000000000000000000000000000000000000000000000000000000600052604160045260246000fd5b613868826135e5565b810181811067ffffffffffffffff8211171561388757613886613830565b5b80604052505050565b600061389a6134d8565b90506138a6828261385f565b919050565b600067ffffffffffffffff8211156138c6576138c5613830565b5b6138cf826135e5565b9050602081019050919050565b82818337600083830152505050565b60006138fe6138f9846138ab565b613890565b90508281526020810184848401111561391a5761391961382b565b5b6139258482856138dc565b509392505050565b600082601f83011261394257613941613826565b5b81356139528482602086016138eb565b91505092915050565b600060208284031215613971576139706134e2565b5b600082013567ffffffffffffffff81111561398f5761398e6134e7565b5b61399b8482850161392d565b91505092915050565b6000819050919050565b6139b7816139a4565b82525050565b60006020820190506139d260008301846139ae565b92915050565b6139e1816139a4565b81146139ec57600080fd5b50565b6000813590506139fe816139d8565b92915050565b600060208284031215613a1a57613a196134e2565b5b6000613a28848285016139ef565b91505092915050565b60008060008060008060c08789031215613a4e57613a4d6134e2565b5b6000613a5c89828a016139ef565b9650506020613a6d89828a016139ef565b9550506040613a7e89828a016139ef565b9450506060613a8f89828a016139ef565b9350506080613aa089828a016139ef565b92505060a0613ab189828a016139ef565b9150509295509295509295565b613ac781613571565b8114613ad257600080fd5b50565b600081359050613ae481613abe565b92915050565b60008060408385031215613b0157613b006134e2565b5b6000613b0f85828601613727565b9250506020613b2085828601613ad5565b9150509250929050565b600067ffffffffffffffff821115613b4557613b44613830565b5b613b4e826135e5565b9050602081019050919050565b6000613b6e613b6984613b2a565b613890565b905082815260208101848484011115613b8a57613b8961382b565b5b613b958482856138dc565b509392505050565b600082601f830112613bb257613bb1613826565b5b8135613bc2848260208601613b5b565b91505092915050565b60008060008060808587031215613be557613be46134e2565b5b6000613bf387828801613727565b9450506020613c0487828801613727565b9350506040613c1587828801613672565b925050606085013567ffffffffffffffff811115613c3657613c356134e7565b5b613c4287828801613b9d565b91505092959194509250565b60008060408385031215613c6557613c646134e2565b5b6000613c7385828601613727565b9250506020613c8485828601613727565b9150509250929050565b7f4e487b7100000000000000000000000000000000000000000000000000000000600052602260045260246000fd5b60006002820490506001821680613cd557607f821691505b60208210811415613ce957613ce8613c8e565b5b50919050565b7f455243373231413a20617070726f76656420717565727920666f72206e6f6e6560008201527f78697374656e7420746f6b656e00000000000000000000000000000000000000602082015250565b6000613d4b602d8361340f565b9150613d5682613cef565b604082019050919050565b60006020820190508181036000830152613d7a81613d3e565b9050919050565b7f455243373231413a20617070726f76616c20746f2063757272656e74206f776e60008201527f6572000000000000000000000000000000000000000000000000000000000000602082015250565b6000613ddd60228361340f565b9150613de882613d81565b604082019050919050565b60006020820190508181036000830152613e0c81613dd0565b9050919050565b7f455243373231413a20617070726f76652063616c6c6572206973206e6f74206f60008201527f776e6572206e6f7220617070726f76656420666f7220616c6c00000000000000602082015250565b6000613e6f60398361340f565b9150613e7a82613e13565b604082019050919050565b60006020820190508181036000830152613e9e81613e62565b9050919050565b600081519050613eb481613710565b92915050565b600060208284031215613ed057613ecf6134e2565b5b6000613ede84828501613ea5565b91505092915050565b7f455243373231413a206f776e657220696e646578206f7574206f6620626f756e60008201527f6473000000000000000000000000000000000000000000000000000000000000602082015250565b6000613f4360228361340f565b9150613f4e82613ee7565b604082019050919050565b60006020820190508181036000830152613f7281613f36565b9050919050565b7f4e487b7100000000000000000000000000000000000000000000000000000000600052601160045260246000fd5b6000613fb382613651565b91507fffffffffffffffffffffffffffffffffffffffffffffffffffffffffffffffff821415613fe657613fe5613f79565b5b600182019050919050565b7f455243373231413a20756e61626c6520746f2067657420746f6b656e206f662060008201527f6f776e657220627920696e646578000000000000000000000000000000000000602082015250565b600061404d602e8361340f565b915061405882613ff1565b604082019050919050565b6000602082019050818103600083015261407c81614040565b9050919050565b600081905092915050565b7f687474703a2f2f6c6f63616c686f73743a343030302f70726f7065727469657360008201527f2f00000000000000000000000000000000000000000000000000000000000000602082015250565b60006140ea602183614083565b91506140f58261408e565b602182019050919050565b600061410b826135a7565b6141158185614083565b93506141258185602086016135b2565b80840191505092915050565b600061413c826140dd565b91506141488284614100565b915081905092915050565b7f455243373231413a20676c6f62616c20696e646578206f7574206f6620626f7560008201527f6e64730000000000000000000000000000000000000000000000000000000000602082015250565b60006141af60238361340f565b91506141ba82614153565b604082019050919050565b600060208201905081810360008301526141de816141a2565b9050919050565b7f455243373231413a2062616c616e636520717565727920666f7220746865207a60008201527f65726f2061646472657373000000000000000000000000000000000000000000602082015250565b6000614241602b8361340f565b915061424c826141e5565b604082019050919050565b6000602082019050818103600083015261427081614234565b9050919050565b7f4e487b7100000000000000000000000000000000000000000000000000000000600052603260045260246000fd5b600060ff82169050919050565b60006142be826142a6565b915060ff8214156142d2576142d1613f79565b5b600182019050919050565b7f536f75726365206d75737420626520746865206f7261636c65206f662074686560008201527f2072657175657374000000000000000000000000000000000000000000000000602082015250565b600061433960288361340f565b9150614344826142dd565b604082019050919050565b600060208201905081810360008301526143688161432c565b9050919050565b7f455243373231413a20617070726f766520746f2063616c6c6572000000000000600082015250565b60006143a5601a8361340f565b91506143b08261436f565b602082019050919050565b600060208201905081810360008301526143d481614398565b9050919050565b7f455243373231413a207472616e7366657220746f206e6f6e204552433732315260008201527f6563656976657220696d706c656d656e74657200000000000000000000000000602082015250565b600061443760338361340f565b9150614442826143db565b604082019050919050565b600060208201905081810360008301526144668161442a565b9050919050565b7f4552433732314d657461646174613a2055524920717565727920666f72206e6f60008201527f6e6578697374656e7420746f6b656e0000000000000000000000000000000000602082015250565b60006144c9602f8361340f565b91506144d48261446d565b604082019050919050565b600060208201905081810360008301526144f8816144bc565b9050919050565b600061450b8285614100565b91506145178284614100565b91508190509392505050565b7f455243373231413a207472616e736665722063616c6c6572206973206e6f742060008201527f6f776e6572206e6f7220617070726f7665640000000000000000000000000000602082015250565b600061457f60328361340f565b915061458a82614523565b604082019050919050565b600060208201905081810360008301526145ae81614572565b9050919050565b7f455243373231413a207472616e736665722066726f6d20696e636f727265637460008201527f206f776e65720000000000000000000000000000000000000000000000000000602082015250565b600061461160268361340f565b915061461c826145b5565b604082019050919050565b6000602082019050818103600083015261464081614604565b9050919050565b7f455243373231413a207472616e7366657220746f20746865207a65726f20616460008201527f6472657373000000000000000000000000000000000000000000000000000000602082015250565b60006146a360258361340f565b91506146ae82614647565b604082019050919050565b600060208201905081810360008301526146d281614696565b9050919050565b60006146e482613651565b91506146ef83613651565b9250827fffffffffffffffffffffffffffffffffffffffffffffffffffffffffffffffff0382111561472457614723613f79565b5b828201905092915050565b614738816134ec565b82525050565b600081519050919050565b600082825260208201905092915050565b60006147658261473e565b61476f8185614749565b935061477f8185602086016135b2565b614788816135e5565b840191505092915050565b6000610100820190506147a9600083018b6136e6565b6147b6602083018a61377c565b6147c360408301896139ae565b6147d060608301886136e6565b6147dd608083018761472f565b6147ea60a083018661377c565b6147f760c083018561377c565b81810360e0830152614809818461475a565b90509998505050505050505050565b7f455243373231413a206f776e657220717565727920666f72206e6f6e6578697360008201527f74656e7420746f6b656e00000000000000000000000000000000000000000000602082015250565b6000614874602a8361340f565b915061487f82614818565b604082019050919050565b600060208201905081810360008301526148a381614867565b9050919050565b60006148b582613651565b915060008214156148c9576148c8613f79565b5b600182039050919050565b60006080820190506148e960008301876136e6565b6148f660208301866136e6565b614903604083018561377c565b8181036060830152614915818461475a565b905095945050505050565b60008151905061492f81613518565b92915050565b60006020828403121561494b5761494a6134e2565b5b600061495984828501614920565b91505092915050565b7f4e487b7100000000000000000000000000000000000000000000000000000000600052601260045260246000fd5b600061499c82613651565b91506149a783613651565b9250826149b7576149b6614962565b5b828204905092915050565b60006149cd82613651565b91506149d883613651565b9250828210156149eb576149ea613f79565b5b828203905092915050565b6000614a0182613651565b9150614a0c83613651565b925082614a1c57614a1b614962565b5b828206905092915050565b6000819050919050565b6000614a4c614a47614a42846136b4565b614a27565b6136b4565b9050919050565b6000614a5e82614a31565b9050919050565b6000614a7082614a53565b9050919050565b60008160601b9050919050565b6000614a8f82614a77565b9050919050565b6000614aa182614a84565b9050919050565b614ab9614ab482614a65565b614a96565b82525050565b6000819050919050565b614ada614ad582613651565b614abf565b82525050565b6000614aec8285614aa8565b601482019150614afc8284614ac9565b6020820191508190509392505050565b6000606082019050614b2160008301866136e6565b614b2e602083018561377c565b8181036040830152614b40818461475a565b9050949350505050565b600081519050614b5981613abe565b92915050565b600060208284031215614b7557614b746134e2565b5b6000614b8384828501614b4a565b91505092915050565b7f756e61626c6520746f207472616e73666572416e6443616c6c20746f206f726160008201527f636c650000000000000000000000000000000000000000000000000000000000602082015250565b6000614be860238361340f565b9150614bf382614b8c565b604082019050919050565b60006020820190508181036000830152614c1781614bdb565b9050919050565b6000614c2982613651565b9150614c3483613651565b9250817fffffffffffffffffffffffffffffffffffffffffffffffffffffffffffffffff0483118215151615614c6d57614c6c613f79565b5b828202905092915050565b60008160011c9050919050565b6000808291508390505b6001851115614ccf57808604811115614cab57614caa613f79565b5b6001851615614cba5780820291505b8081029050614cc885614c78565b9450614c8f565b94509492505050565b600082614ce85760019050614da4565b81614cf65760009050614da4565b8160018114614d0c5760028114614d1657614d45565b6001915050614da4565b60ff841115614d2857614d27613f79565b5b8360020a915084821115614d3f57614d3e613f79565b5b50614da4565b5060208310610133831016604e8410600b8410161715614d7a5782820a905083811115614d7557614d74613f79565b5b614da4565b614d878484846001614c85565b92509050818404811115614d9e57614d9d613f79565b5b81810290505b9392505050565b6000614db682613651565b9150614dc183613651565b9250614dee7fffffffffffffffffffffffffffffffffffffffffffffffffffffffffffffffff8484614cd8565b90509291505056fea2646970667358221220ac1e6a0b8dca5ef0190741e25dba20a235555acc2f554bbcd14d1d69b15b55e864736f6c634300080b0033",
  "linkReferences": {},
  "deployedLinkReferences": {}
}