{
  "_format": "hh-sol-artifact-1",
  "contractName": "MyHomeContract",
  "sourceName": "contracts/RealEstateHodefy.sol",
  "abi": [
    {
      "anonymous": false,
      "inputs": [
        {
          "indexed": false,
          "internalType": "address",
          "name": "_Hodefy",
          "type": "address"
        },
        {
          "indexed": false,
          "internalType": "uint256",
          "name": "_PropertyID",
          "type": "uint256"
        }
      ],
      "name": "Add",
      "type": "event"
    },
    {
      "anonymous": false,
      "inputs": [
        {
          "indexed": true,
          "internalType": "address",
          "name": "_from",
          "type": "address"
        },
        {
          "indexed": true,
          "internalType": "address",
          "name": "_to",
          "type": "address"
        },
        {
          "indexed": false,
          "internalType": "uint256",
          "name": "_PropertyID",
          "type": "uint256"
        }
      ],
      "name": "Transfer",
      "type": "event"
    },
    {
      "inputs": [],
      "name": "Hodefy",
      "outputs": [
        {
          "internalType": "address",
          "name": "",
          "type": "address"
        }
      ],
      "stateMutability": "view",
      "type": "function"
    },
    {
      "inputs": [],
      "name": "PropertiesTotal",
      "outputs": [
        {
          "internalType": "uint256",
          "name": "",
          "type": "uint256"
        }
      ],
      "stateMutability": "view",
      "type": "function"
    },
    {
      "inputs": [
        {
          "internalType": "address",
          "name": "",
          "type": "address"
        },
        {
          "internalType": "uint256",
          "name": "",
          "type": "uint256"
        }
      ],
      "name": "_ownedHomes",
      "outputs": [
        {
          "internalType": "address",
          "name": "Hodefy",
          "type": "address"
        },
        {
          "internalType": "string",
          "name": "description",
          "type": "string"
        },
        {
          "internalType": "uint256",
          "name": "price",
          "type": "uint256"
        },
        {
          "internalType": "uint256",
          "name": "PropertyID",
          "type": "uint256"
        }
      ],
      "stateMutability": "view",
      "type": "function"
    },
    {
      "inputs": [
        {
          "internalType": "string",
          "name": "_description",
          "type": "string"
        },
        {
          "internalType": "uint256",
          "name": "_price",
          "type": "uint256"
        }
      ],
      "name": "addHome",
      "outputs": [],
      "stateMutability": "nonpayable",
      "type": "function"
    },
    {
      "inputs": [
        {
          "internalType": "address",
          "name": "_homeHolder",
          "type": "address"
        },
        {
          "internalType": "uint256",
          "name": "_index",
          "type": "uint256"
        }
      ],
      "name": "getHome",
      "outputs": [
        {
          "internalType": "string",
          "name": "",
          "type": "string"
        },
        {
          "internalType": "uint256",
          "name": "",
          "type": "uint256"
        },
        {
          "internalType": "address",
          "name": "",
          "type": "address"
        },
        {
          "internalType": "uint256",
          "name": "",
          "type": "uint256"
        }
      ],
      "stateMutability": "nonpayable",
      "type": "function"
    },
    {
      "inputs": [
        {
          "internalType": "address",
          "name": "_homeHolder",
          "type": "address"
        }
      ],
      "name": "getNoOfHomes",
      "outputs": [
        {
          "internalType": "uint256",
          "name": "",
          "type": "uint256"
        }
      ],
      "stateMutability": "view",
      "type": "function"
    },
    {
      "inputs": [],
      "name": "myHomeContract",
      "outputs": [],
      "stateMutability": "nonpayable",
      "type": "function"
    },
    {
      "inputs": [
        {
          "internalType": "address",
          "name": "_HomeBuyer",
          "type": "address"
        },
        {
          "internalType": "uint256",
          "name": "_PropertyID",
          "type": "uint256"
        }
      ],
      "name": "transferHome",
      "outputs": [
        {
          "internalType": "bool",
          "name": "",
          "type": "bool"
        }
      ],
      "stateMutability": "nonpayable",
      "type": "function"
    }
  ],
  "bytecode": "0x608060405234801561001057600080fd5b506110aa806100206000396000f3fe608060405234801561001057600080fd5b50600436106100885760003560e01c8063a7b8e1591161005b578063a7b8e1591461012c578063c605531b14610148578063c651674f1461017b578063d8f8830a146101ab57610088565b806309e74f7f1461008d5780632cbbd2af146100ab5780633b92fabe146100db57806385e6237d146100f9575b600080fd5b6100956101b5565b6040516100a29190610aa5565b60405180910390f35b6100c560048036038101906100c09190610b32565b6101bb565b6040516100d29190610aa5565b60405180910390f35b6100e3610207565b6040516100f09190610b6e565b60405180910390f35b610113600480360381019061010e9190610bb5565b61022b565b6040516101239493929190610c8e565b60405180910390f35b61014660048036038101906101419190610e0f565b610320565b005b610162600480360381019061015d9190610bb5565b6104f1565b6040516101729493929190610e6b565b60405180910390f35b61019560048036038101906101909190610bb5565b610740565b6040516101a29190610ed2565b60405180910390f35b6101b361099f565b005b60015481565b6000600260008373ffffffffffffffffffffffffffffffffffffffff1673ffffffffffffffffffffffffffffffffffffffff168152602001908152602001600020805490509050919050565b60008054906101000a900473ffffffffffffffffffffffffffffffffffffffff1681565b6002602052816000526040600020818154811061024757600080fd5b9060005260206000209060040201600091509150508060000160009054906101000a900473ffffffffffffffffffffffffffffffffffffffff169080600101805461029190610f1c565b80601f01602080910402602001604051908101604052809291908181526020018280546102bd90610f1c565b801561030a5780601f106102df5761010080835404028352916020019161030a565b820191906000526020600020905b8154815290600101906020018083116102ed57829003601f168201915b5050505050908060020154908060030154905084565b60008054906101000a900473ffffffffffffffffffffffffffffffffffffffff1673ffffffffffffffffffffffffffffffffffffffff163373ffffffffffffffffffffffffffffffffffffffff161461037857600080fd5b600180600082825461038a9190610f7d565b92505081905550600060405180608001604052803373ffffffffffffffffffffffffffffffffffffffff1681526020018481526020018381526020016001548152509050600260003373ffffffffffffffffffffffffffffffffffffffff1673ffffffffffffffffffffffffffffffffffffffff16815260200190815260200160002081908060018154018082558091505060019003906000526020600020906004020160009091909190915060008201518160000160006101000a81548173ffffffffffffffffffffffffffffffffffffffff021916908373ffffffffffffffffffffffffffffffffffffffff160217905550602082015181600101908051906020019061049a9291906109e9565b50604082015181600201556060820151816003015550507f2728c9d3205d667bbc0eefdfeda366261b4d021949630c047f3e5834b30611ab336001546040516104e4929190610fd3565b60405180910390a1505050565b60606000806000600260008773ffffffffffffffffffffffffffffffffffffffff1673ffffffffffffffffffffffffffffffffffffffff168152602001908152602001600020858154811061054957610548610ffc565b5b9060005260206000209060040201600101600260008873ffffffffffffffffffffffffffffffffffffffff1673ffffffffffffffffffffffffffffffffffffffff16815260200190815260200160002086815481106105ab576105aa610ffc565b5b906000526020600020906004020160020154600260008973ffffffffffffffffffffffffffffffffffffffff1673ffffffffffffffffffffffffffffffffffffffff168152602001908152602001600020878154811061060e5761060d610ffc565b5b906000526020600020906004020160000160009054906101000a900473ffffffffffffffffffffffffffffffffffffffff16600260008a73ffffffffffffffffffffffffffffffffffffffff1673ffffffffffffffffffffffffffffffffffffffff168152602001908152602001600020888154811061069157610690610ffc565b5b9060005260206000209060040201600301548380546106af90610f1c565b80601f01602080910402602001604051908101604052809291908181526020018280546106db90610f1c565b80156107285780601f106106fd57610100808354040283529160200191610728565b820191906000526020600020905b81548152906001019060200180831161070b57829003601f168201915b50505050509350935093509350935092959194509250565b600080600090505b600260003373ffffffffffffffffffffffffffffffffffffffff1673ffffffffffffffffffffffffffffffffffffffff168152602001908152602001600020805490508110156109985782600260003373ffffffffffffffffffffffffffffffffffffffff1673ffffffffffffffffffffffffffffffffffffffff16815260200190815260200160002082815481106107e4576107e3610ffc565b5b906000526020600020906004020160030154141561098557600060405180608001604052808673ffffffffffffffffffffffffffffffffffffffff168152602001600260003373ffffffffffffffffffffffffffffffffffffffff1673ffffffffffffffffffffffffffffffffffffffff168152602001908152602001600020848154811061087657610875610ffc565b5b9060005260206000209060040201600101805461089290610f1c565b80601f01602080910402602001604051908101604052809291908181526020018280546108be90610f1c565b801561090b5780601f106108e05761010080835404028352916020019161090b565b820191906000526020600020905b8154815290600101906020018083116108ee57829003601f168201915b50505050508152602001600260003373ffffffffffffffffffffffffffffffffffffffff1673ffffffffffffffffffffffffffffffffffffffff168152602001908152602001600020848154811061096657610965610ffc565b5b9060005260206000209060040201600201548152602001858152509050505b80806109909061102b565b915050610748565b5092915050565b336000806101000a81548173ffffffffffffffffffffffffffffffffffffffff021916908373ffffffffffffffffffffffffffffffffffffffff1602179055506000600181905550565b8280546109f590610f1c565b90600052602060002090601f016020900481019282610a175760008555610a5e565b82601f10610a3057805160ff1916838001178555610a5e565b82800160010185558215610a5e579182015b82811115610a5d578251825591602001919060010190610a42565b5b509050610a6b9190610a6f565b5090565b5b80821115610a88576000816000905550600101610a70565b5090565b6000819050919050565b610a9f81610a8c565b82525050565b6000602082019050610aba6000830184610a96565b92915050565b6000604051905090565b600080fd5b600080fd5b600073ffffffffffffffffffffffffffffffffffffffff82169050919050565b6000610aff82610ad4565b9050919050565b610b0f81610af4565b8114610b1a57600080fd5b50565b600081359050610b2c81610b06565b92915050565b600060208284031215610b4857610b47610aca565b5b6000610b5684828501610b1d565b91505092915050565b610b6881610af4565b82525050565b6000602082019050610b836000830184610b5f565b92915050565b610b9281610a8c565b8114610b9d57600080fd5b50565b600081359050610baf81610b89565b92915050565b60008060408385031215610bcc57610bcb610aca565b5b6000610bda85828601610b1d565b9250506020610beb85828601610ba0565b9150509250929050565b600081519050919050565b600082825260208201905092915050565b60005b83811015610c2f578082015181840152602081019050610c14565b83811115610c3e576000848401525b50505050565b6000601f19601f8301169050919050565b6000610c6082610bf5565b610c6a8185610c00565b9350610c7a818560208601610c11565b610c8381610c44565b840191505092915050565b6000608082019050610ca36000830187610b5f565b8181036020830152610cb58186610c55565b9050610cc46040830185610a96565b610cd16060830184610a96565b95945050505050565b600080fd5b600080fd5b7f4e487b7100000000000000000000000000000000000000000000000000000000600052604160045260246000fd5b610d1c82610c44565b810181811067ffffffffffffffff82111715610d3b57610d3a610ce4565b5b80604052505050565b6000610d4e610ac0565b9050610d5a8282610d13565b919050565b600067ffffffffffffffff821115610d7a57610d79610ce4565b5b610d8382610c44565b9050602081019050919050565b82818337600083830152505050565b6000610db2610dad84610d5f565b610d44565b905082815260208101848484011115610dce57610dcd610cdf565b5b610dd9848285610d90565b509392505050565b600082601f830112610df657610df5610cda565b5b8135610e06848260208601610d9f565b91505092915050565b60008060408385031215610e2657610e25610aca565b5b600083013567ffffffffffffffff811115610e4457610e43610acf565b5b610e5085828601610de1565b9250506020610e6185828601610ba0565b9150509250929050565b60006080820190508181036000830152610e858187610c55565b9050610e946020830186610a96565b610ea16040830185610b5f565b610eae6060830184610a96565b95945050505050565b60008115159050919050565b610ecc81610eb7565b82525050565b6000602082019050610ee76000830184610ec3565b92915050565b7f4e487b7100000000000000000000000000000000000000000000000000000000600052602260045260246000fd5b60006002820490506001821680610f3457607f821691505b60208210811415610f4857610f47610eed565b5b50919050565b7f4e487b7100000000000000000000000000000000000000000000000000000000600052601160045260246000fd5b6000610f8882610a8c565b9150610f9383610a8c565b9250827fffffffffffffffffffffffffffffffffffffffffffffffffffffffffffffffff03821115610fc857610fc7610f4e565b5b828201905092915050565b6000604082019050610fe86000830185610b5f565b610ff56020830184610a96565b9392505050565b7f4e487b7100000000000000000000000000000000000000000000000000000000600052603260045260246000fd5b600061103682610a8c565b91507fffffffffffffffffffffffffffffffffffffffffffffffffffffffffffffffff82141561106957611068610f4e565b5b60018201905091905056fea2646970667358221220641011d0a79637215f5ca299eacf6b6faf69341627e6245c497ca1184e7de0d864736f6c634300080b0033",
  "linkReferences": {},
  "deployedLinkReferences": {}
}